:100000000C94400A0C94680A0C94680A0C94680AD0
:100010000C94680A0C94680A0C94680A0C94680A98
:100020000C94680A0C94680A0C94C21C0C94341D3D
:100030000C94680A0C94680A0C94680A0C94680A78
:100040000C94680A0C94680A0C94680A0C94680A68
:100050000C94680A0C94680A0C94680A0C94631B4C
:100060000C94680A0C94680A0C94680A0C94680A48
:100070000C94680A0C94680A0C94680A0C94680A38
:100080000C9427290C94680A0C94680A0C94680A4A
:100090000C94680A0C94680A0C94680A0C94680A18
:1000A0000C94680A0C94680A0C94680A05A84CCD54
:1000B000B2D44EB93836A9020C50B9918688083CA2
:1000C000A6AAAA2ABE000000803F0300030803047A
:1000D00003080300020203000203030002020302FA
:1000E00002020302010103040203030401010304E9
:1000F00001020306020203060101000000000000E5
:1001000002080000020600000203020103010203CC
:1001100003010205030102070301000003020000BE
:10012000040203010501030305010305050103079B
:1001300005010000000000000108000002030100AA
:100140000301020003020300030301020301020290
:100150000302030203030104030102040302030474
:100160000303010603010206030203060303000062
:100170000000000002080000020702000203020063
:10018000020402000402020003020203020302034B
:100190000202010305010203050102050203020533
:1001A0000102010505010205050100000000000033
:1001B0000208000001020000010300000105030025
:1001C0000101030001020002010503010101030115
:1001D00001020302010103020102030301010303FF
:1001E00001020304010103040102030501010305E7
:1001F00001020306010103060102030701010307CF
:1002000001020000000000000208010102010107D4
:1002100002010201020302070203020401020000BC
:1002200003010000000000000201000002050300BD
:100230000501030105010302050103030501030490
:10024000050103050501030605010307050100007B
:100250000000000001060200010202020102020485
:100260000102020601020301030103030301030566
:100270000301030703010000000000000208020060
:10028000020402000203020001020204020402044A
:100290000303020404030302040203060402000031
:1002A0000000000002080100020601000205010032
:1002B0000304010004040000000000000208000024
:1002C0000207000003060000040600000000000012
:1002D00002080000020702000203020402030000F9
:1002E00000000000010500010105000002070000F8
:1002F00002080000020100000202000002030000E8
:1003000000000000010600010106000002040000D8
:1003100002050000000000000208000002070000C3
:1003200001040000000000000208000002070000B5
:100330000204000000002020202020202020202077
:1003400062792040696E615F616E69002020202023
:100350002020202020202020202056657220312EB1
:1003600030002020202041505052454E54494345F2
:100370002057495A4152440020202020202020208C
:10038000594F555220504C41592121005448414E5B
:100390004B20594F5520464F5200414C4C20434C66
:1003A000454152002020202020202020202062795A
:1003B0002040696E615F616E69002020202020204E
:1003C000202020202020202056657220312E300051
:1003D0002020202041505052454E5449434520573B
:1003E000495A41524400F0445F9569518E68448CEB
:1003F0004E6A480909414C4C20434C454152004348
:100400004C45415200505241435449434500F0F895
:100410009C8E8783878E9CF8F00000FEFF03030309
:100420000303070EFCF80000FEFF030303030307AA
:100430000EFCF80000FFFF00000000000000FFFFBE
:100440000000FEFF8383838383C7EE7C380000F8BF
:10045000FC0E07030303070EFCF800003F7FE0C01B
:100460008080C0E07F3FFFFF01010101010101FF2A
:10047000FF0000FFFF0C0C0C0C1C3E77E3C10000DA
:100480007FFFC0C0C0C0C0E0703F1F00001F3F70B2
:10049000E0C0C0C0E0703F1F00007FFFC1C1C1C10C
:1004A000C1E3773E1C00001F3F70E0C0C0C0E07099
:1004B0003F1F000000000001FFFF01000000D5F019
:1004C0008D14A1C881CFD9F1AF2000080B00020222
:1004D00002010009040000010202000005240010CE
:1004E0000105240101010424020605240600010778
:1004F00005810310004009040100020A0000000702
:1005000005020240000007058302400000040309C1
:100510000412010002EF0201404123368000010174
:1005200002030141726475696E6F204C4C430041B7
:10053000726475696E6F204C656F6E6172646F00D6
:10054000426967536869656C6400486F6C79506FE5
:1005500072740053687572696B656E0054726970CD
:100560006C65506F776572005371756172466C6F80
:1005700077657200466163650053756E456E6572FE
:1005800067790053686172706E65737300547769A0
:100590006E456C656D656E74004C756E61506F775D
:1005A000657200486F6C79486578005477696E46CB
:1005B0006F7263650053696D706C654D6167696347
:1005C0000053756E4C696768740053696D706C6593
:1005D000526563740053696D706C65436972636C36
:1005E0006500204E4F5448494E4720544F205445F3
:1005F0004143482E2E2E002020422B19203A4D4FE9
:10060000564520444F574E002020422B18203A4D8B
:100610004F564520555000202D2D494E53545255CC
:100620004354494F4E342D2D002020422B1B2C1AB1
:10063000203A524F5441544500202D2D494E5354D9
:1006400052554354494F4E332D2D0020201B2C1A58
:10065000203A4348414E47452053484150450020E9
:100660002D2D494E535452554354494F4E322D2D42
:10067000002020422B41203A52455345540020206F
:10068000412020203A4452415720534841504500D0
:100690002020192020203A534D414C4C4552002037
:1006A00020182020203A42494747455200202D2D4E
:1006B000494E535452554354494F4E312D2D00F05D
:1006C0004C594A8D556A716C6D846C46F059617A4B
:1006D00048564D5B2020422B18203A00F0484A7AB9
:1006E00048564D5B2020422B18203A00F05F4857B7
:1006F0007D487D483DF04D4668952020422B1B2CBF
:100700001A203A00F05F48577D487D483CF05C5322
:1007100046944F8C4D4A8D20201B2C1A203A00F015
:100720005F48577D487D483BF0868C6C4C5BF121DF
:100730001A00F05C5346944A4E51F0634657515BA1
:100740008DF04C4C4F515B8DF05F48577D487D4894
:100750003AD505CA05C105B505AB05A30599058DB3
:100760000583057905740568055C0553054A054050
:1007700005535441474500DB004C616E6775616766
:10078000653A200050726163746963650054696D55
:10079000652041747461636B00417263616465201C
:1007A0000062792040696E615F616E69000F2041CF
:1007B000505052454E544943452057495A4152449E
:1007C000200F00F0549556F08E95598748F0B49953
:1007D000D597B4B8A4F097EEA6EEBE627920406932
:1007E0006E615F616E6900F0816C8B46F100F08094
:1007F0007D48664D460000000000000000204000DB
:1008000000000000002050200000000000503000D8
:100810000000000000606000000000000000001800
:1008200018000000000000363600000000000056EE
:100830003600000000000201510909060000000016
:100840005F00000000000000007F41410041417F47
:1008500000000000000000003F0101010040404096
:100860007E0000000000003F213D05070070505E43
:10087000427E000000000000007F63410041637F72
:1008800000000000000808087F08080800080808A1
:1008900008080808004444445F44444400412214CA
:1008A00008142241000808082A0808080014141433
:1008B00014141414001434141C141614000808140E
:1008C0001414222200222214141408080002050223
:1008D0003C42422400002B2C782C2B000000242AC0
:1008E0007A2F2A1200001C62322E23140020545E3C
:1008F0002541422000422512082452210020623E58
:10090000633E23020020564955225840000022141D
:100910007F142200001C2259554D120C0000004A81
:10092000555529000004643C173C64040004643CF1
:100930001F3C6404001C22414141221C001C3E7FDC
:100940007F7F3E1C001C225D555D221C0008142286
:100950004122140800081C3E7F3E1C08007F4141D4
:100960004141417F007F7F7F7F7F7F7F0040704CD0
:10097000434C70400040707C7F7C70400001071940
:10098000611907010001071F7F1F07010049221499
:1009900049142249000505057D05050500080808DC
:1009A000082A1C0800081C2A08080808000004027D
:1009B0007F020400000010207F20100000003E4154
:1009C0004141413E000000427F4000000000625172
:1009D0005149494600002241494949360000302822
:1009E00024227F2000002F454545453900003E491F
:1009F00049494932000001016119050300003649E7
:100A000049494936000026494949493E00002054D9
:100A10007E3414600020527F2A1A4A3000003C4085
:100A200020041800001E2040200204180000104A74
:100A30004A2A100000000845454525180000482AAC
:100A40003A4A400000004425153D45400000247E00
:100A5000145024000022527F0A484A340044344F84
:100A6000443804180044344F4439041900002A5A09
:100A70004B4E5A0800002A5A4B4E5B0800000814DF
:100A8000142241000000081414224504003F000411
:100A9000443F0404003F0004443F0405000020528A
:100AA000424242400000205242434241000024544E
:100AB00044475C040000245444475C050000003FA8
:100AC000404040200000003F404140210002020A17
:100AD000563F02020002020A563F02030004043F8E
:100AE00044545F440004043F44545F450000080937
:100AF0003D4B4908000008093D4B490A00423A07AE
:100B00002254444400423A07225544450000021250
:100B10004E4B4A32000002124E4B4A330000101076
:100B200048483000000404022222221C000404026F
:100B30002223221D000002021A2543410000020266
:100B40001A254345000020574848444400002057D8
:100B50004849444500120A2752503A24007F002099
:100B60005242424000304E38540F64780024147FC3
:100B70000422523C001824124E422418007F002404
:100B800054543F44007F002454543F45007F0024C8
:100B900054563D4600023A4740413E0400023A475F
:100BA00040413E0500023A4740433D060040304088
:100BB0004D321060004030404D32116100403040F5
:100BC0004D321562000804020408101000080402E7
:100BD0000409101100080402040A1512007F006ABB
:100BE0006A7E2A4A007F006A6A7F2A4B007F006A79
:100BF0006A7E2D4A00006A6A6A7F2A4A0030291DEF
:100C00004B483C1000122A7F4240422400304E38AC
:100C1000540F443800000A3E4B4A4A300000080E88
:100C2000384614080004071C62030A0400001C482C
:100C30003E241800001E04523F12120C00002050E7
:100C4000503E480000002050503F244400001C51FA
:100C5000494A483000000F4241211E00000010693F
:100C60006D4B49300024147F04023E4000001049BF
:100C70004D4B4930000028187E0844380024147F6A
:100C80000442423C003049251F24543800402825A6
:100C90005735284000100A2E5B724A480040300C3D
:100CA00033404020000004443C140C00000001418B
:100CB0003D090503000020201078040000001010FA
:100CC000087C0201000018484C2818000000064269
:100CD0004322120E000040487848400000202222A3
:100CE0003E22222000002828587C080000222212E0
:100CF0004A7F0202000042221F02427E000042227E
:100D00001F02427F000012121F7212100000121206
:100D10001F721310000008444322120E0000084402
:100D20004322120F00080742221E02020008074257
:100D3000221F0203000042424242427E0000424221
:100D40004243427F0002024F42221F020002024F32
:100D500042231E030000454A4020100C0000454A73
:100D60004021100D00404222221A2640004042221B
:100D7000221B26410004043F4444544C0004043F19
:100D80004445544D000001464020100F000001462C
:100D90004020110F000008444B2A120E00000844A6
:100DA0004B2A120F00080A4A3E09090800080A4A9D
:100DB0003E090809000018405820180000020C42A3
:100DC0004C20100E00020C424C21100D0004054571
:100DD0003D050504000405453D0504050000007FB0
:100DE000080810000000007F0809100100044424D6
:100DF0001F04040400202222222222200040412538
:100E000015192700002022127B06122000404020E6
:100E1000100807000040300E00020C700040300E39
:100E200000020D710040300E00020D7200003F48BC
:100E30004848444400003F484849444500003F4872
:100E4000484A4546000002424222120E0000024279
:100E50004223120F000002424222150E0008040233
:100E600004081020000804020409102100080402EC
:100E7000040A1522002414447F041424002414447A
:100E80007F051425002414447F0615220002021257
:100E900022520A0600002125294A42000040704CD7
:100EA0004350204000404424140837000000080943
:100EB0003F4949480000101C680818000004040F4E
:100EC00074020A06000040484878400000202222B0
:100ED000223E20200000004454547C000000424A7E
:100EE0004A4A4A7E000004454525150C00000F4083
:100EF00040201F000040201E007F20100000007FC7
:100F00004020100800007E424242427E00000C4415
:100F100044241C00000006424222120E0010121E41
:100F200012127F12002022223A26222000000145C0
:100F30004525150F000041424020100C00000642DC
:100F40004322120F000048281C4878000000100CB3
:100F500048380800000804040810100800080000C1
:100F60000800000800040808080808080008080825
:100F7000080808080801020408102040800000004A
:100F800000003E5B4F5B3E3E6B4F6B3E1C3E7C3E2B
:100F90001C183C7E3C181C577D571C1C5E7F5E1C39
:100FA00000183C1800FFE7C3E7FF0018241800FFF3
:100FB000E7DBE7FF30483A060E2629792926407FED
:100FC000050507407F05253F5A3CE73C5A7F3E1CFC
:100FD0001C08081C1C3E7F14227F22145F5F005FE8
:100FE0005F06097F017F006689956A6060606060C6
:100FF00094A2FFA29408047E040810207E2010080A
:10100000082A1C08081C2A08081E101010100C1EA4
:101010000C1E0C30383E3830060E3E0E0600000026
:10102000000000005F00000007000700147F147F2D
:1010300014242A7F2A12231308646236495620504A
:101040000008070300001C2241000041221C002A66
:101050001C7F1C2A08083E08080080703000080821
:10106000080808000060600020100804023E514992
:10107000453E00427F400072494949462141494D61
:10108000331814127F1027454545393C4A494931E8
:1010900041211109073649494936464949291E0067
:1010A0000014000000403400000008142241141411
:1010B000141414004122140802015909063E415D2E
:1010C000594E7C1211127C7F494949363E414141BB
:1010D000227F4141413E7F494949417F0909090138
:1010E0003E414151737F0808087F00417F41002045
:1010F00040413F017F081422417F404040407F0231
:101100001C027F7F0408107F3E4141413E7F090958
:1011100009063E4151215E7F091929462649494960
:101120003203017F01033F4040403F1F2040201F0A
:101130003F4038403F63140814630304780403619C
:1011400059494D43007F41414102040810200041AC
:1011500041417F0402010204404040404000030737
:10116000080020545478407F28444438384444448C
:1011700028384444287F385454541800087E090203
:1011800018A4A49C787F0804047800447D400020C3
:1011900040403D007F1028440000417F40007C0417
:1011A0007804787C080404783844444438FC1824D3
:1011B000241818242418FC7C0804040848545454A7
:1011C0002404043F44243C4040207C1C2040201C3C
:1011D0003C4030403C44281028444C9090907C4443
:1011E00064544C4400083641000000770000004180
:1011F00036080002010204023C2623263C1EA1A15F
:1012000061123A4040207A38545455592155557945
:101210004121545478412155547840205455794007
:101220000C1E527212395555555939545454593966
:10123000555454580000457C410002457D42000150
:10124000457C40F0292429F0F0282528F07C5455CD
:1012500045002054547C547C0A097F49324949494D
:10126000323248484832324A4848303A4141217A7D
:101270003A42402078009DA0A07D39444444393D45
:101280004040403D3C24FF2424487E4943662B2FA8
:10129000FC2F2BFF0929F620C0887E090320545417
:1012A00079410000447D413048484A32384040226C
:1012B0007A007A0A0A727D0D19317D2629292F2894
:1012C000262929292630484D4020380808080808D2
:1012D000080808382F10C8ACBA2F102834FA0000BC
:1012E0007B000008142A142222142A1408950022D4
:1012F0000095AA005500AAAA55AA55AA000000FF09
:1013000000101010FF00141414FF001010FF00FF55
:101310001010F010F0141414FC001414F700FF0067
:1013200000FF00FF1414F404FC141417101F101015
:101330001F101F1414141F00101010F000000000E4
:101340001F101010101F10101010F010000000FFE0
:10135000101010101010101010FF10000000FF14DB
:101360000000FF00FF00001F10170000FC04F41431
:10137000141710171414F404F40000FF00F71414E9
:101380001414141414F700F7141414171410101F65
:10139000101F141414F4141010F010F000001F109B
:1013A0001F0000001F14000000FC140000F010F0EB
:1013B0001010FF10FF141414FF141010101F000061
:1013C0000000F010FFFFFFFFFFF0F0F0F0F0FFFF74
:1013D000FF0000000000FFFF0F0F0F0F0F38444405
:1013E00038447C2A2A3E147E02020606027E027ED1
:1013F0000263554941633844443C04407E201E202A
:1014000006027E020299A5E7A5991C2A492A1C4CCE
:101410007201724C304A4D4D303048784830BC62D1
:101420005A463D3E494949007E0101017E2A2A2A49
:101430002A2A44445F444440514A444040444A516B
:10144000400000FF0103E080FF000008086B6B080C
:101450003612362436060F090F0600001818000051
:10146000001010003040FF0101001F01011E001993
:101470001D1712003C3C3C3C000000000000F92D10
:1014800011241FBECFEFDAE0DEBFCDBF11E0A0E038
:10149000B1E0E4EBF5E602C005900D92A63DB10780
:1014A000D9F727E0A6EDB1E001C01D92A73FB20732
:1014B000E1F71AE0C0E4DAE004C02197FE010E94DF
:1014C000FA2FCF33D107C9F70E944F2B0C94D83293
:1014D0000C940000DC01ED91FC910680F781E02D79
:1014E00060E00994EF920F93CF93DF9300D000D088
:1014F0001F92CDB7DEB729833A834B835C836D831C
:101500002B813C812330310511F168F42130310504
:10151000B9F02230310571F5DC01ED91FC910688BE
:10152000F789E02D21C024303105C1F02530310587
:1015300009F5DC01ED91FC910488F589E02D14C0DA
:10154000DC01ED91FC910684F785E02D0DC0DC01F6
:10155000ED91FC910088F189E02D06C0DC01ED9150
:10156000FC910288F389E02D29813A814B815C81CD
:101570006D8109950F900F900F900F900F90DF9154
:10158000CF910F91EF9008954F925F926F927F925B
:101590008F929F92AF92BF92CF92DF92EF92FF9283
:1015A0000F931F93CF93DF935C01812C912C15E057
:1015B000612C712C189DE001199DD00D1124CA0DCC
:1015C000DB1DCE55DF4F169DC001179D900D1124D8
:1015D0008A0D9B1DDC011296F50120813181F901F4
:1015E00040845184FC01C2801196DC9011971296C0
:1015F000EC9012971396FC90139714960C912881F7
:1016000039814A815B816C81C501F20109958111A3
:1016100009C0FFEF6F1A7F0A80E26816710499F61D
:1016200080E049C0FFEF8F1A9F0A80E2881691047C
:1016300009F0BECF812C912C15E0612C712C189DE6
:10164000E001199DD00D1124CA0DDB1D2296169DB7
:10165000D001179DB00D1124AA0DBB1DAE55BF4F73
:10166000F50180819181FC0140845184C880D9803A
:10167000EA80FB800C812C9111963C911197129677
:101680004C91129713965C91139714966C91C50127
:10169000F2010995811108C0FFEF6F1A7F0A80E2FD
:1016A00068167104A1F6BCCF9FEF891A990AE0E28F
:1016B0008E16910411F6DF91CF911F910F91FF903B
:1016C000EF90DF90CF90BF90AF909F908F907F90E2
:1016D0006F905F904F900895FC019C0120563F4F02
:1016E000158214823596E217F307D1F7FC01EC5B03
:1016F000FE4F10820895CF92DF92EF92FF920F93E8
:10170000CF93DF93CDB7DEB72A970FB6F894DEBF3D
:101710000FBECDBF4B835C83E886F9868B819C81AD
:10172000488559858330910521F44430510571F580
:1017300006C08430910539F44330510539F5211143
:1017400046C0CC20B1F18417950709F040C0823023
:101750009105B9F028F4009751F1019739F037C09D
:1017600085309105B0F00597E1F031C0211111C02D
:10177000C1102DC060132BC0832F8D2580958170E3
:1017800027C0211106C0C11022C007C084179507C9
:10179000F1F42C111CC03D111AC081E0601317C078
:1017A00017C02C1114C081E03D1111C011C081E09F
:1017B0000FC06013C8CF232F30E02C5F3F4F27703E
:1017C00033274D2D50E081E02417350709F080E0E4
:1017D0002A960FB6F894DEBF0FBECDBFDF91CF9132
:1017E0000F91FF90EF90DF90CF900895FC01EB5B9D
:1017F000FE4F108231961082319624E02083E62F2E
:10180000F0E0EE0FFF1FE05FFE4F50814181FC01D1
:10181000EC55FF4F9C012C5B3E4F11821082359698
:10182000E217F307D1F7252F342FDC01AE55BF4F58
:101830008E5B9E4FF901749131966491319644917B
:1018400050E03196E4914115510589F07C93119651
:101850006C93119713965C934E9312971496EC9396
:1018600014972C5F3F4F1596A817B90719F70895DD
:10187000FC01248135812F5F3F4F3583248380E035
:1018800090E008952F923F924F925F926F927F92D5
:101890008F929F92AF92BF92CF92DF92EF92FF9280
:1018A0000F931F93CF93DF9300D000D0CDB7DEB757
:1018B0009C838B831C0128EB221A2EEF320AD10164
:1018C000CD90DD90ED90FC9020E030E0A901C701C3
:1018D000B6010E9410321816BCF42AE037ED43E23C
:1018E0005CE3C701B6010E9410321816B4F52DEC66
:1018F0003CEC4CEC5DE3C701B6010E9400302B01CB
:101900003C01460157011AC02AE037ED43E25CEB87
:10191000C701B6010E946D3087FF1FC04601570105
:10192000B7FAB094B7F8B0942DEC3CEC4CEC5DE316
:10193000C501B4010E9400302B013C01A5019401B6
:10194000C701B6010E947730A30192010E941532AF
:10195000F10160837183828393830B811C810B5A15
:101960001E4FD8018C91811144C0AB81BC81ED9197
:10197000FC9111970484F585E02DCD01099588230C
:10198000C1F1809171008D7F809371001092F00100
:1019900081EF95E09093EF018093EE019093ED013C
:1019A0008093EC018BE092E09093F2058093F10537
:1019B00088EC90E09093F4058093F30527E134E000
:1019C0003093F6052093F5059093F8058093F7057D
:1019D0008DE298E09093FA058093F90580E991E013
:1019E0009093FC058093FB050E94792884E090E0A9
:1019F00011C288E00E941F24882309F4BCC00E9401
:101A0000AA2982FF43C0809171008D7F809371006D
:101A10001092F00181EF95E09093EF018093EE0139
:101A20009093ED018093EC0180E793E09093F205B1
:101A30008093F10584E690E09093F4058093F3059C
:101A400028EB31E03093F6052093F5059093F805E7
:101A50008093F7052CED30E03093FA052093F905DB
:101A60009093FC058093FB050E947928AB81BC8193
:101A7000ED91FC9111970284F385E02DCD0109953C
:101A8000F8018081882309F476C0B1C18B809C80E5
:101A9000FCEB8F1AFEEF9F0AD401EC91E03208F0C4
:101AA0006AC06E2E712CB5E0EB9FF00111245F012E
:101AB00022E0A20EB11C8B819C81A80EB91EE80FFA
:101AC000F91FDC01AE5BBE4F8D919C9195838483A1
:101AD000AB81BC81AB5BBE4F8D919C919383828324
:101AE000AB81BC81A95BBE4F8C918683512C15E0E4
:101AF000D4018C915816A8F58B819C81159D800D81
:101B0000911D1124DC011296EB81FC8140815181F1
:101B1000FA010084F185E02DFA83E983FC01C2809B
:101B20001196DC9011971296EC9012971396FC90F8
:101B3000139714960C91D5012C9111963C91119705
:101B400012964C91129713965C91139714966C9180
:101B50008B819C81E981FA81099581114EC1539451
:101B6000C7CF64E670E080E793E00E948729D40144
:101B70008C918F5F8C9380E80E941F24882329F129
:101B80000E94AA29EB81FC8182FF10C0EB5BFE4F13
:101B90008081833011F4108202C08F5F808368EBF4
:101BA00071E08CED90E00E9478270FC0E95BFE4F5A
:101BB0008081883011F481E001C08F5F808362E30F
:101BC00070E088EB91E00E94872980E10E941F2449
:101BD000882329F10E94AA29EB81FC8182FF10C091
:101BE000EB5BFE4F8081811102C083E001C0815018
:101BF00080836CED70E088EB91E00E9478270FC045
:101C0000E95BFE4F8081813011F488E001C0815092
:101C1000808362E370E088EB91E00E94872980E492
:101C20000E941F240B811C810C5A1E4F882309F42B
:101C30004AC00E94AA29EB81FC8182FF19C0EA5B9D
:101C4000FE4F8081811102C087E001C081508083F6
:101C500080E090E0A0E8BFE3F10180839183A2835C
:101C6000B3836CED70E088EB91E00E9478272BC085
:101C7000EE5BFE4F8081918183309105A1F040F4AD
:101C80008130910569F00297A9F483E090E010C0DB
:101C90008430910559F0059769F481E090E008C01F
:101CA00082E090E005C084E090E002C085E090E032
:101CB0009183808388E0D8018C9362E370E088EBA5
:101CC00091E00E9487290E94AA2986FF0DC00E94E8
:101CD000AA2982FD09C088E0F801808362E370E0F0
:101CE00088EB91E00E94872980E20E941F248823CC
:101CF00009F44AC00E94AA29EB81FC8182FF19C025
:101D0000EA5BFE4F8081873011F4108202C08F5F42
:101D1000808380E090E0A0E8BFEBF10180839183B5
:101D2000A283B38368EB71E08CED90E00E9478278A
:101D30002BC0EE5BFE4F8081918183309105B9F01D
:101D400040F48130910569F00297A9F481E090E0B8
:101D500010C08430910541F0059769F484E090E06B
:101D600008C085E090E005C083E090E002C082E01A
:101D700090E09183808388E0D8018C9362E370E0E7
:101D800088EB91E00E9487290E94AA2985FF0DC057
:101D90000E94AA2982FD09C088E0F801808362E3DD
:101DA00070E088EB91E00E948729EB81FC81E05B89
:101DB000FE4F80818F5F8083EB81FC81E75AFE4F6D
:101DC0008081882369F02B813C81295A3E4F3A83D8
:101DD0002983D9018D919C91119701968D939C93A4
:101DE000F8018081882331F08150808303C081E035
:101DF00090E010C080E090E00DC085E0869DF0018D
:101E0000879DF00D11242B813C81E20FF31F158279
:101E10001482B1CE0F900F900F900F90DF91CF9161
:101E20001F910F91FF90EF90DF90CF90BF90AF90F8
:101E30009F908F907F906F905F904F903F902F90EA
:101E40000895CF92DF92EF920F931F93CF93DF937A
:101E500000D000D01F92CDB7DEB76C0100E010E0DB
:101E600020E040E260E170E0C8010E941D270F5FA2
:101E70001F4F00381105A1F720E240E860E170E053
:101E800080E090E00E9448271982F601EA5BFE4F4D
:101E900030813A8381E0482F8B831C8282E08D83DE
:101EA000D601ED91FC91008CF18DE02DE12C00EF3D
:101EB00020E050E062E0C601099582E0482F8B8364
:101EC0001C82D601ED91FC91008CF18DE02D08E093
:101ED00029813A8150E06D81C601099583E0482F40
:101EE0008B831C82D601ED91FC91008CF18DE02D4D
:101EF00000E229813A8150E06D81C601099584E0B4
:101F0000482F8B831C82D601ED91FC91008CF18DC2
:101F1000E02D08E329813A8150E06D81C6010995E1
:101F200085E0482F8B831C82D601ED91FC91008CBB
:101F3000F18DE02D00E529813A8150E06D81C601E7
:101F40000995F601E05BFE4F808180FD1DC03E9744
:101F5000208131812150310948E1429FC001439FD6
:101F6000900D112428E164E170E004960F900F9029
:101F70000F900F900F90DF91CF911F910F91EF90E5
:101F8000DF90CF900C9448270F900F900F900F90F8
:101F90000F90DF91CF911F910F91EF90DF90CF9035
:101FA00008953F924F925F926F927F928F929F928D
:101FB000AF92BF92CF92DF92EF92FF920F931F9357
:101FC000CF93DF93CDB7DEB76D970FB6F894DEBF32
:101FD0000FBECDBF6C01F32E302E0E2D122FFC0143
:101FE000E45BFE4F80809180A280B38020E030E0EF
:101FF000A901C501B4010E9415326E877F87888BC5
:10200000998B6F2D70E0F601EA5BFE4F8081681BB3
:102010007109072E000C880B990B0E942131F601E3
:10202000E85BFE4F20813181428153810E94003064
:1020300020E030E040E050E40E9400309B01AC0121
:102040000E94013020E030E040E05EE30E94153263
:102050002BED3FE049E450E40E9415326B017C0116
:102060000E9472306E837F8388879987C701B6018B
:102070000E9482326B017C0120E030E040E051E4BC
:10208000C501B4010E9415322B013C0188E0189F64
:10209000B0011124072E000C880B990B0E942131EE
:1020A000A50194010E9415324B015C019B01AC011A
:1020B0006E817F81888599850E9415326A8B7B8B22
:1020C0008C8B9D8BA5019401C701B6010E9415322E
:1020D0006E8B7F8B888F998F602F000F770B880B0B
:1020E000990B0E9421316A877B878C879D87A3018A
:1020F0009201C701B6010E9415322E893F89488D91
:10210000598D0E94013020E030E040E052E40E940E
:1021100001302A853B854C855D850E9401300E94F7
:10212000E9306A8F7B8F8C8F9D8F632D330C770BFB
:10213000880B990B0E9421314B015C01A301920194
:102140006E817F81888599850E9415322A893B8915
:102150004C895D890E94013020E030E040E052E48B
:102160000E940130A50194010E9401300E94E930D3
:102170002B013C01A70196016E857F85888999898D
:102180000E9415322E893F89488D598D0E94013059
:1021900020E030E040E052E40E9401302A853B8597
:1021A0004C855D850E9401300E94E9306B017C0105
:1021B0002E813F81488559856E857F8588899989DB
:1021C0000E9415322A893B894C895D890E94013021
:1021D00020E030E040E052E40E940130A50194018B
:1021E0000E9401300E94E9304B015C012A8D3B8D39
:1021F000A201B601C4010E94B5259601A4016A8D11
:102200007B8DC2016D960FB6F894DEBF0FBECDBFB9
:10221000DF91CF911F910F91FF90EF90DF90CF90C2
:10222000BF90AF909F908F907F906F905F904F90F6
:102230003F900C94B5253F924F925F926F927F92A0
:102240008F929F92AF92BF92CF92DF92EF92FF92C6
:102250000F931F93CF93DF93CDB7DEB7A5970FB63C
:10226000F894DEBF0FBECDBF6C01F32E302E1E2DB5
:10227000022FFC01E45BFE4F80809180A280B3803E
:1022800070E080E090E00E94213120E030E040EEFC
:1022900050E40E941532A50194010E9415326E830C
:1022A0007F83888799876F2D70E0F601EA5BFE4F88
:1022B0008081681B7109072E000C880B990B0E9406
:1022C0002131F601E85BFE4F20813181428153814B
:1022D0000E94003020E030E040E050E40E940030F6
:1022E0009B01AC010E94013020E030E040E05EE361
:1022F0000E9415326B017C012BEA3AEA4AEA5EE35E
:102300000E9401302BED3FE049E450E40E94153279
:102310002B013C010E9472306E8B7F8B888F998FCE
:10232000C301B2010E9482326A8B7B8B8C8B9D8BA6
:102330002BEA3AEA4AE25FE3C701B6010E940130A4
:102340002BEA3AEA4AEA5EE30E9401302BED3FE0D5
:1023500049E450E40E9415322B013C010E94723086
:102360006E877F87888B998BC301B2010E9482326E
:102370006A877B878C879D872BEA3AEA4AEA5FE384
:10238000C701B6010E9401302BEA3AEA4AEA5EE34D
:102390000E9401302BED3FE049E450E40E941532E9
:1023A0002B013C010E9472306E8F7F8F88A399A30E
:1023B000C301B2010E9482326AA37BA38CA39DA3B6
:1023C00088E0089FB0011124072E000C880B990BA0
:1023D0000E942131A50194010E9415324B015C013C
:1023E0002BED3FE049E450E4C701B6010E941532ED
:1023F0006B017C010E9472309B01AC01C501B401EC
:102400000E9415326A8F7B8F8C8F9D8FC701B6011A
:102410000E9482329B01AC01C501B4010E941532B9
:102420006B017C01612F110F770B880B990B0E94B8
:1024300021314B015C012A853B854C855D856E8190
:102440007F81888599850E94153223EF34E045EB22
:102450005FE30E947730A70196010E94013020E0DF
:1024600030E040E052E40E940130A50194010E9456
:1024700001300E94E9306A877B878C879D87632DB6
:10248000330C770B880B990B0E9421312B013C01F7
:102490002E853F85488959896E817F8188859985F8
:1024A0000E94153223EF34E045EB5FE30E94773062
:1024B0002A8D3B8D4C8D5D8D0E94013020E030E0F7
:1024C00040E052E40E940130A30192010E940130D9
:1024D0000E94E9306E877F87888B998B2A893B8998
:1024E0004C895D896E817F81888599850E9415322E
:1024F00023EF34E045EB5FE30E947730A7019601BC
:102500000E94013020E030E040E052E40E940130BF
:10251000A50194010E9401300E94E9306A8B7B8BF7
:102520008C8B9D8B2E893F89488D598D6E817F8143
:10253000888599850E94153223EF34E045EB5FE3EF
:102540000E9477302A8D3B8D4C8D5D8D0E9401302D
:1025500020E030E040E052E40E940130A30192010B
:102560000E9401300E94E9306E8B7F8B888F998F9B
:102570002A853B854E855F856A897B898E899F89FF
:102580000E94B5252AA13BA14CA15DA16E817F814E
:10259000888599850E94153223EF34E045EB5FE38F
:1025A0000E947730A70196010E94013020E030E0C0
:1025B00040E052E40E940130A50194010E940130E4
:1025C0000E94E9306B017C012E8D3F8D48A159A1FD
:1025D0006E817F81888599850E94153223EF34E0D2
:1025E00045EB5FE30E9477302A8D3B8D4C8D5D8DEE
:1025F0000E94013020E030E040E052E40E940130CF
:10260000A30192010E9401300E94E9302B013C019C
:102610009601AB016A857B858E859F850E94B525D5
:102620002A893B894E895F89B601C201A5960FB6FA
:10263000F894DEBF0FBECDBFDF91CF911F910F91F8
:10264000FF90EF90DF90CF90BF90AF909F908F90D2
:102650007F906F905F904F903F900C94B5253F9284
:102660004F925F926F927F928F929F92AF92BF92A2
:10267000CF92DF92EF92FF920F931F93CF93DF934E
:10268000CDB7DEB7A5970FB6F894DEBF0FBECDBFAE
:102690006C01F32E302E1E2D022FFC01E45BFE4F49
:1026A00080809180A280B38070E080E090E00E9402
:1026B000213120E030E040EE50E40E941532A501C7
:1026C00094010E9415326E837F83888799876F2DCE
:1026D00070E0F601EA5BFE4F8081681B7109072EEE
:1026E000000C880B990B0E942131F601E85BFE4F2C
:1026F00020813181428153810E94003020E030E00E
:1027000040E050E40E9400309B01AC010E94013087
:1027100020E030E040E05EE30E9415326B017C0176
:102720002BED3FE049E450E40E9415322B013C01BF
:102730000E9472306A877B878C879D87C301B201B4
:102740000E9482326E877F87888B998B2BEA3AEAC8
:102750004AE25FE3C701B6010E9401302BED3FE082
:1027600049E450E40E9415322B013C010E94723072
:102770006A8B7B8B8C8B9D8BC301B2010E94823252
:102780002B013C012BEA3AEA4AEA5FE3C701B601B2
:102790000E9401302BED3FE049E450E40E941532E5
:1027A0006B017C010E9472306E8F7F8F88A399A38A
:1027B000C701B6010E9482326AA37BA38CA39DA3AA
:1027C00088E0089FB0011124072E000C880B990B9C
:1027D0000E942131A50194010E9415326B017C01F8
:1027E0009B01AC016A857B858C859D850E94153295
:1027F0004B015C01A70196016E857F8588899989C7
:102800000E9415326B017C01612F110F770B880B31
:10281000990B0E9421316E8B7F8B888F998FA3013A
:1028200092016E817F81888599850E94153223EF00
:1028300034E045EB5FE30E947730A70196010E94E8
:10284000013020E030E040E052E40E9401302E8967
:102850003F89488D598D0E9401300E94E9306A8F6E
:102860007B8F8C8F9D8F632D330C770B880B990B8F
:102870000E9421312B013C012A893B894C895D89C9
:102880006E817F81888599850E94153223EF34E01F
:1028900045EB5FE30E947730A50194010E9401306F
:1028A00020E030E040E052E40E940130A3019201B8
:1028B0000E9401300E94E9306A8B7B8B8C8B9D8B50
:1028C0002E853F85488959896E817F8188859985C4
:1028D0000E94153223EF34E045EB5FE30E9477302E
:1028E000A70196010E94013020E030E040E052E470
:1028F0000E9401302E893F89488D598D0E940130F8
:102900000E94E9306E877F87888B998B2A853B856B
:102910004C855D856E817F81888599850E94153201
:1029200023EF34E045EB5FE30E947730A50194018B
:102930000E94013020E030E040E052E40E9401308B
:10294000A30192010E9401300E94E9306A877B87CF
:102950008C879D872A8D3B8D4A895B896E857F8513
:102960008A859B850E94B5252AA13BA14CA15DA12A
:102970006E817F81888599850E94153223EF34E02E
:1029800045EB5FE30E947730A70196010E9401307A
:1029900020E030E040E052E40E9401302E893F897F
:1029A000488D598D0E9401300E94E9306B017C01F5
:1029B0002E8D3F8D48A159A16E817F818885998593
:1029C0000E94153223EF34E045EB5FE30E9477303D
:1029D000A50194010E94013020E030E040E052E483
:1029E0000E940130A30192010E9401300E94E9304F
:1029F0002B013C019601AB016A8D7B8D8A899B89F5
:102A00000E94B5252E853F854A855B85B601C201AA
:102A1000A5960FB6F894DEBF0FBECDBFDF91CF9164
:102A20001F910F91FF90EF90DF90CF90BF90AF90EC
:102A30009F908F907F906F905F904F903F900C94FD
:102A4000B5253F924F925F926F927F928F929F92A5
:102A5000AF92BF92CF92DF92EF92FF920F931F93AC
:102A6000CF93DF93CDB7DEB7AD970FB6F894DEBF47
:102A70000FBECDBF6C01F32E302E1E2D022FFC0198
:102A8000E45BFE4F80819181A281B3818E839F831D
:102A9000A887B98770E080E090E00E94213120E0B3
:102AA00030E040EE50E40E9415322E813F8148858F
:102AB00059850E9415324B015C016F2D70E0F601C3
:102AC000EA5BFE4F8081681B7109072E000C880BA2
:102AD000990B0E942131F601E85BFE4F2081318184
:102AE000428153810E94003020E030E040E050E419
:102AF0000E9400309B01AC010E94013020E030E0D8
:102B000040E05EE30E9415326B017C012BED3FE05B
:102B100049E450E40E9415322B013C010E947230BE
:102B20006A877B878C879D87C301B2010E948232AE
:102B30006E877F87888B998B20E030E040E05FE3F1
:102B4000C701B6010E9401302BED3FE049E450E49B
:102B50000E9415322B013C010E9472306A8F7B8FDC
:102B60008C8F9D8FC301B2010E9482326E8B7F8B4E
:102B7000888F998F20E030E040E85FE3C701B6011D
:102B80000E9401302BED3FE049E450E40E941532F1
:102B90002B013C010E9472306AA37BA38CA39DA3EE
:102BA000C301B2010E9482326E8F7F8F88A399A3E6
:102BB00020E030E040EC5FE3C701B6010E94013045
:102BC0002BED3FE049E450E40E9415326B017C019B
:102BD0000E9472306EA37FA388A799A7C701B60190
:102BE0000E9482326AA77BA78CA79DA798E0099FC5
:102BF000B0011124072E000C880B990B0E94213183
:102C00002E813F81488559850E9415326B017C01D8
:102C10009B01AC016A857B858C859D850E94153260
:102C20006A8B7B8B8C8B9D8BA70196016E857F8534
:102C3000888999890E9415326B017C01612F110FDF
:102C4000770B880B990B0E9421316E837F838887D5
:102C500099872E893F89488D598DC501B4010E94FD
:102C6000153223EF34E045EB5FE30E947730A70194
:102C700096010E94013020E030E040E052E40E94E2
:102C800001302E813F81488559850E9401300E9484
:102C9000E9306E8B7F8B888F998F632D330C770B88
:102CA000880B990B0E9421312B013C012A8D3B8D11
:102CB0004C8D5D8DC501B4010E94153223EF34E0C7
:102CC00045EB5FE30E9477302A893B894C895D8917
:102CD0000E94013020E030E040E052E40E940130E8
:102CE000A30192010E9401300E94E9306A8F7B8F1C
:102CF0008C8F9D8F2E853F8548895989C501B401E8
:102D00000E94153223EF34E045EB5FE30E947730F9
:102D1000A70196010E94013020E030E040E052E43B
:102D20000E9401302E813F81488559850E940130E3
:102D30000E94E9306E877F87888B998B2A853B8537
:102D40004C855D85C501B4010E94153223EF34E046
:102D500045EB5FE30E9477302A893B894C895D8986
:102D60000E94013020E030E040E052E40E94013057
:102D7000A30192010E9401300E94E9306A877B879B
:102D80008C879D872E893F894A8D5B8D6E857F85D7
:102D90008A859B850E94B5252E8D3F8D48A159A11E
:102DA000C501B4010E94153223EF34E045EB5FE327
:102DB0000E947730A70196010E94013020E030E0A8
:102DC00040E052E40E9401302E813F8148855985C0
:102DD0000E9401300E94E9306E8F7F8F88A399A3F3
:102DE0002AA13BA14CA15DA1C501B4010E941532ED
:102DF00023EF34E045EB5FE30E9477302A893B897B
:102E00004C895D890E94013020E030E040E052E4CE
:102E10000E940130A30192010E9401300E94E9301A
:102E20006AA37BA38CA39DA32E8D3F8D4AA15BA19A
:102E30006E897F898A8D9B8D0E94B5252AA53BA529
:102E40004CA55DA5C501B4010E94153223EF34E005
:102E500045EB5FE30E947730A70196010E940130A5
:102E600020E030E040E052E40E9401302E813F81BA
:102E7000488559850E9401300E94E9306B017C0130
:102E80002EA13FA148A559A5C501B4010E94153244
:102E900023EF34E045EB5FE30E9477302A893B89DA
:102EA0004C895D890E94013020E030E040E052E42E
:102EB0000E940130A30192010E9401300E94E9307A
:102EC0002B013C019601AB016E8D7F8D8AA19BA1E8
:102ED0000E94B5252E853F854A855B85B601C201D6
:102EE000AD960FB6F894DEBF0FBECDBFDF91CF9188
:102EF0001F910F91FF90EF90DF90CF90BF90AF9018
:102F00009F908F907F906F905F904F903F900C9428
:102F1000B5258F929F92AF92BF92CF92DF92EF92A0
:102F2000FF920F931F93CF93DF938C0188E00E9451
:102F30001F24D8011296CD91DC911397882309F4B0
:102F400049C0FE01E85BFE4F10821182128213829B
:102F5000349680E090E0A0E8BFE380839183A28371
:102F6000B383E881F9810284F385E02DCE010995D0
:102F7000D8011296ED91FC911397EF5AFE4F808184
:102F80008F5F808312968D919C911397FC01EF5A6D
:102F9000FE4F6081603109F477C0DC01ED91FC9156
:102FA0000680F781E02D0995D8011296ED91FC91EC
:102FB0001397EE5AFE4F81E0808315961C921E9265
:102FC000149764E670E080E793E00E94872982E02E
:102FD00090E05CC0F801648175816F5F7F4F7583FD
:102FE000648380E090E00E941F314B015C0120E08F
:102FF00030E048E453E40E9477306B017C012DEC13
:103000003CEC4CE45EE30E941032181644F48DEC64
:10301000C82E8CECD82E8CE4E82E8EE3F82E8E0190
:10302000085B1E4FA7019601D8016D917D918D918E
:103030009C910E940130F8016083718382839383A5
:103040002BED3FE049E45EE3C501B4010E94153277
:103050000E9482320C5F1F4F20E030E040E05FE3CF
:103060000E9415322DEC3CEC4CE45FE30E940130F1
:10307000D8016D937D938D939C931397CE5ADE4F19
:10308000188280E090E002C085E090E0DF91CF916F
:103090001F910F91FF90EF90DF90CF90BF90AF9076
:1030A0009F908F9008952F923F924F925F926F92D0
:1030B0007F928F929F92AF92BF92CF92DF92EF92C8
:1030C000FF920F93CF93DF9300D000D01F92CDB724
:1030D000DEB76C01FC01EE5BFE4F80819181482FD1
:1030E0008B839C8316018BEB281A8EEF380AD10153
:1030F0008C9111969C91282F89839A8335966081B3
:103100006D835601B8EBAB1ABEEFBB0AF5014080E8
:103110005180628073801082118212821382D601E4
:10312000ED91FC91008CF18DE02DE12C00E0392F28
:103130005C81C6010995F5014082518262827382E9
:1031400042E060E270E080E290E00E943D26F601FD
:10315000EA5BFE4F608170E0719561957109072E01
:10316000000C880B990B0E942131D5012D913D91C6
:103170004D915C910E94003020E030E040E050E44E
:103180000E9400302BED3FE049EC50E40E941532E4
:1031900020E030E040E05EE30E9415326B017C01EC
:1031A0000E9482324B015C01C701B6010E9472305D
:1031B0002B013C0120E030E040E051E4C501B401C6
:1031C0000E94153220E030E040E052E40E940130DD
:1031D0000E94E9306B017C0120E030E040E051E4E6
:1031E000C301B2010E94153220E030E040E052E419
:1031F0000E9401300E94E9309601AB0160E270E06C
:1032000080E290E00E94B525F101808124E030E069
:103210006901C81AD10883E0CC0CDD1C8A95E1F75E
:103220005601F1E0AF1AB10821E043E0B50180E2B8
:1032300090E00E941D2721E041E0B60181E290E08C
:103240000E941D2721E043E0B50180E290E00E944A
:103250001D2721E041E0B6018FE190E00E941D278B
:1032600021E043E0B50180E290E00F900F900F90D5
:103270000F900F90DF91CF910F91FF90EF90DF9023
:10328000CF90BF90AF909F908F907F906F905F9006
:103290004F903F902F900C941D273F924F925F923A
:1032A0006F927F928F929F92AF92BF92CF92DF9256
:1032B000EF92FF920F931F93CF93DF93CDB7DEB7BB
:1032C00029970FB6F894DEBF0FBECDBF3C01532E39
:1032D0001E2D362EFC01E45BFE4F80809180A28083
:1032E000B38088E0289FB0011124072E000C880BC2
:1032F000990B0E942131A50194010E9415326B01A6
:103300007C01652D70E0F301EA5BFE4F8081681B54
:103310007109072E000C880B990B0E942131F301D3
:10332000E85BFE4F20813181428153810E94003051
:1033300020E030E040E050E40E9400302BED3FE020
:1033400049E45FE30E9415322B013C010E94823266
:103350006E837F8388879987C301B2010E94723090
:103360002B013C0184E0389EB0011124072E000C93
:10337000880B990B0E942131A50194010E941532FE
:103380000E94F030362E2E813F8148855985C70135
:10339000B6010E94153220E030E040E052E40E9485
:1033A00001304B015C01612F110F770B880B990BDA
:1033B0000E9421319B01AC01C501B4010E94013082
:1033C0000E94E9304B015C01A3019201C701B601E3
:1033D0000E94153220E030E040E052E40E940130CB
:1033E0006B017C01602F000F770B880B990B0E94FB
:1033F00021319B01AC01C701B6010E9401300E943E
:10340000E930DC01CB01432DB40129960FB6F894C5
:10341000DEBF0FBECDBFDF91CF911F910F91FF9007
:10342000EF90DF90CF90BF90AF909F908F907F9064
:103430006F905F904F903F900C943D266F927F92DB
:103440008F929F92AF92BF92CF92DF92EF920F93A3
:103450001F93CF93DF936C01A12CB12C15E04C018D
:103460008BEA881A8EEF980A1A9DD0011B9DB00D29
:103470001124E601CA0FDB1FDE011296F6018081DE
:103480009181FC01608C718CE12C00E02A81119605
:103490003C91119712964C91129713965C91139749
:1034A00014966C91C601F3010995F4018081811194
:1034B00018C0DE01AE55BF4FE601E881F981008CEE
:1034C000F18DE02D00E42C9111963C91119712960C
:1034D0004C91129713965C91139714966C91C601B8
:1034E0000995DFEFAD1ABD0AE0E2AE16B10409F0AE
:1034F000BBCFE40188818823D9F080E590E09093E8
:1035000018068093170610921A061092190685E085
:1035100094E0DF91CF911F910F91EF90DF90CF90CA
:10352000BF90AF909F908F907F906F900C945B2492
:10353000DF91CF911F910F91EF90DF90CF90BF90CF
:10354000AF909F908F907F906F900895CF93DF936F
:10355000EC010E94AC258A819B81DC01ED91FC91FC
:103560000480F581E02D0995E1E0F6E0178A168ADE
:10357000118E108E8FEF93E0DF91CF910C945B242E
:10358000CF93DF93EC010E94AC25EA81FB81EA5ADC
:10359000FE4F8081109218061092170610921A069C
:1035A000109219068823A1F185EF93E00E945B2415
:1035B000EA81FB81E75AFE4F8081882379F089EA0E
:1035C00091E00E942A24EA81FB81E95AFE4F608142
:1035D000718180E090E04AE00E9467240E943C24D0
:1035E0002FE046EE53E068E180E00E94F92A0E9455
:1035F0003C240E943C240E943C2480ED93E00E94E5
:103600005B248AEB93E00E945B2484EA93E030C061
:103610008AE993E00E945B24EA81FB81E75AFE4F2E
:103620008081882379F089EA91E00E942A24EA8146
:10363000FB81E95AFE4F6081718180E090E04AE0B1
:103640000E9467240E943C248CE893E00E945B2443
:1036500088E793E00E945B240E943C2482E693E08A
:103660000E945B248CE493E00E945B2486E393E059
:10367000DF91CF910C945B240E94D3323FB7F89432
:103680008091DE019091DF01A091E001B091E10114
:1036900026B5A89B05C02F3F19F00196A11DB11DAD
:1036A0003FBFBA2FA92F982F8827820F911DA11DE8
:1036B000B11DBC01CD0142E0660F771F881F991F25
:1036C0004A95D1F708951F920F920FB60F921124C9
:1036D0002F933F938F939F93AF93BF938091DA0182
:1036E0009091DB01A091DC01B091DD013091D90115
:1036F00023E0230F2D3720F40196A11DB11D05C035
:1037000026E8230F0296A11DB11D2093D9018093B5
:10371000DA019093DB01A093DC01B093DD0180918D
:10372000DE019091DF01A091E001B091E1010196ED
:10373000A11DB11D8093DE019093DF01A093E001F4
:10374000B093E101BF91AF919F918F913F912F91E4
:103750000F900FBE0F901F901895CF93DF931F927D
:10376000CDB7DEB76983DC01ED91FC910280F38176
:10377000E02D41E050E0BE016F5F7F4F09950F9053
:10378000DF91CF91089583E08093E9008091F2006A
:10379000882319F08AE38093E8000895FC0184856A
:1037A000958597FD0BC09FB7F89482E08093E90060
:1037B0008091F2009FBF90E0019608959FB7F89422
:1037C00082E08093E9008091F2009FBF90E008952D
:1037D0004091E6015091E7012091E4013091E5012B
:1037E00042175307B4F49091E8009570E1F390917B
:1037F000E80092FD19C08093F1008091E60190915C
:10380000E70101968F739927892B19F48EEF809326
:10381000E8008091E6019091E70101969093E7011D
:103820008093E60181E0089580E00895DF92EF92B1
:10383000FF920F931F93CF93DF93D82E8A017B01C2
:10384000E40EF51EEB01CE15DF0571F0D7FE03C0C7
:10385000FE01849101C088810E94E81B219681119C
:10386000F2CF8FEF9FEF01C0C801DF91CF911F9181
:103870000F91FF90EF90DF900895615030F020910C
:10388000F100FC0120830196F8CF289884E680930C
:10389000EA0108950E94082890E008950F931F936D
:1038A000CF93DF931F92CDB7DEB78C01FC018485E7
:1038B000958597FF0EC0CE0101960E94DA270197E9
:1038C00019F4898190E002C08FEF9FEFF80195878E
:1038D0008487F801848595850F90DF91CF911F91A2
:1038E0000F910895CF93DF931F92CDB7DEB7FC0100
:1038F0008485958597FD05C02FEF3FEF3587248799
:103900000BC0CE0101960E94DA27019719F4898134
:1039100090E002C08FEF9FEF0F90DF91CF9108955D
:103920000F931F93CF93DF931F92CDB7DEB782E043
:10393000898342E450E06BEC74E080E80E94161C3E
:103940000E941928DC0112960D911C911397011504
:10395000110589F0D801ED91FC910280F381E02DF1
:10396000BE016F5F7F4FC801099597FD04C0F80144
:1039700000851185ECCF89810F90DF91CF911F9148
:103980000F9108951F920F920FB60F9211248F93EB
:103990009F938091E1009091E100937F9093E100EB
:1039A00083FF0FC01092E90091E09093EB0010921A
:1039B000EC0092E39093ED001092EB0198E090936D
:1039C000F00082FF20C093E09093E9009091F20014
:1039D000992319F09AE39093E8009091E9019923D3
:1039E00039F09091E90191509093E901992389F17F
:1039F0009091EA01992339F09091EA0191509093C6
:103A0000EA01992341F184FF10C08091E2008E7E8B
:103A100081608093E2008091E1008F7E8093E100DD
:103A20008091E3018E7E806111C080FF16C080917D
:103A3000E2008E7E80618093E2008091E1008E7EC4
:103A40008093E1008091E3018E7E81608093E301A9
:103A500004C05D9ACDCF289AD6CF9F918F910F90B9
:103A60000FBE0F901F9018951F920F920FB60F92D6
:103A70001124CF92DF92EF92FF920F931F932F9317
:103A80003F934F935F936F937F938F939F93AF93E6
:103A9000BF93EF93FF93CF93DF93CDB7DEB76C97D0
:103AA000DEBFCDBF1092E9008091E80083FFFBC12B
:103AB00068E0CE0145960E943D1C82EF8093E800AD
:103AC0008D8987FF05C09091E80090FFFCCF03C06F
:103AD0009EEF9093E800982F907609F0C6C09E89DB
:103AE0004F89588D2F89F88C91110CC0803829F49A
:103AF0008091E2018093F10002C01092F1001092D7
:103B0000F10045C1913051F4811141C1413051055D
:103B100009F03DC18091E2018D7F0BC0933061F4CB
:103B2000811135C14130510509F031C18091E20167
:103B300082608093E2012BC1953049F48091E800C6
:103B400080FFFCCF822F80688093E30020C19630F5
:103B500009F05EC00B8D1C8D22E01092E9001092DE
:103B6000E7011092E601F21232C01092E5011092C4
:103B7000E4010E94901C99E0BE016F5F7F4FDB0162
:103B8000E92F1D92EA95E9F79983FA8291E09E83E5
:103B900090EA98879AEF99872091E6013091E701A2
:103BA000275F3F4F3C832B838D831092E900109257
:103BB000E7011092E6011093E5010093E40149E06A
:103BC00050E080E00E94161C0E94901CE0C0109300
:103BD000E5010093E4010E941928DC0112960D9181
:103BE0001C9113970115110509F4BBC0D801ED9183
:103BF000FC910480F581E02DBE016B5E7F4FC80112
:103C00000995009709F0C7C0F80100851185EACF32
:103C1000973009F445C1983021F481E08093F10098
:103C2000B6C0993009F0B3C0837009F039C1E1E33F
:103C3000F1E081E031E096E32081211109C08EE7B7
:103C40008093EA001092EA008F898093EB019FC075
:103C50008093E9003093EB0021912093EC00909346
:103C6000ED008F5F873041F7EACF8B8D9C8D1092EE
:103C7000E9001092E7011092E6019093E50180932C
:103C8000E401898D811153C08E899D89913A49F44F
:103C9000813209F005C147E050E064E071E080E066
:103CA000BBC0913209F0FCC0833269F48F89988DD2
:103CB000A0E0B0E08093000190930101A093020185
:103CC000B093030164C0803269F48091E80082FF00
:103CD000FCCF67E084E091E00E943D1C8BEF809375
:103CE000E80055C0823209F052C08F8980930B01E1
:103CF000EEEFFFE7859194918B3F9C4D19F0E0E04A
:103D0000F8E002C0EEEFFAE0809104019091050125
:103D1000A0910601B0910701803B9440A105B10537
:103D200009F09EC080910B0180FF79C099C00E946C
:103D30001928FC01028113810115110509F4B0C095
:103D4000D801ED91FC910190F081E02DBE016B5EF8
:103D50007F4FC801099581111AC0F80100851185AE
:103D6000EBCFF1E0FF1609F44EC0F3E0FF1298C06C
:103D70008F89882309F44AC0823089F440E860E1E1
:103D80008FE295E00E94C42D882309F489C08EEF4C
:103D90008093E80088C018161906CCF381C08130E2
:103DA00029F440E86BE083E295E0ECCF833009F042
:103DB00077C00E941928DC011296ED90FC901397B1
:103DC0008E010F5F1F4F6801E114F10479F0D701F4
:103DD000ED91FC910680F781E02DB801C7010995AE
:103DE000080F111DF701E084F184EECFD8011C9279
:103DF000F60101900020E9F73197BF016C197D09A8
:103E000040E0C601BFCF61E175E002C06DE075E042
:103E1000FB01449150E080E80E94161CB8CFEE3FB1
:103E20002AE0F20751F0808191818737A7E79A074E
:103E300021F09093FF0A8093FE0A87E797E791832A
:103E40008083809160008093E8019BE088E10FB659
:103E5000F894A895809360000FBE9093600097CF70
:103E6000808191818737974709F091CFA8958091FC
:103E700060008861809360008091E8018093600019
:103E8000EE3FBAE0FB0739F08091FE0A9091FF0AFD
:103E9000918380837CCF1092FF0A1092FE0A77CF25
:103EA00081E28093EB006C960FB6F894DEBF0FBEF4
:103EB000CDBFDF91CF91FF91EF91BF91AF919F91D6
:103EC0008F917F916F915F914F913F912F911F91B2
:103ED0000F91FF90EF90DF90CF900F900FBE0F905B
:103EE0001F9018958F929F92AF92BF92CF92DF92C0
:103EF000EF92FF926B017C010E943E1B4B015C0123
:103F0000C114D104E104F104F1F00E943E1BDC0174
:103F1000CB0188199909AA09BB09883E9340A105DC
:103F2000B10570F321E0C21AD108E108F10888EE6A
:103F3000880E83E0981EA11CB11CC114D104E104B9
:103F4000F10419F7DDCFFF90EF90DF90CF90BF9095
:103F5000AF909F908F9008958F929F92AF92BF9253
:103F6000CF92DF92EF92FF920F931F93CF93DF9345
:103F70006C017B018A0180910B01882309F45CC0EC
:103F80008091EB01882309F457C08091E30180FF01
:103F900005C08091E00082608093E000E801B12CD0
:103FA0008AEFA82E93E0892E2AE3922E209711F40F
:103FB000BB20D9F10E94082881110AC0AA94AA2026
:103FC000D9F161E070E080E090E00E94721FEECFD6
:103FD000282F30E0C217D3070CF48C2F9FB7F8942A
:103FE0008092E9002091E80025FF1DC0282F30E0D5
:103FF000C21BD30BF701815020F041914093F10097
:10400000FACFE20EF31EBB2019F09092E8000AC02E
:104010008091E80085FD07C09092E800BB24B3942E
:10402000209709F0B12C9FBFC1CF5D9884E68093A3
:10403000E9011016110644F081E090E0F601938347
:10404000828380E090E001C0C801DF91CF911F9191
:104050000F91FF90EF90DF90CF90BF90AF909F9027
:104060008F900895AF92BF92CF92DF92EF920F930D
:104070001F93CF93DF93EC010E94AC25C12CD12C70
:1040800015E08B819C811C9DD0011D9DB00D1124DC
:10409000A80FB91FAE55BF4FFC0120813181F90136
:1040A000A08CB18CE12C0FE32C9111963C911197CF
:1040B00012964C91129713965C91139714966C91EB
:1040C000F5010995FFEFCF1ADF0A20E2C216D104ED
:1040D000C1F6EB81FC81EA5AFE4F808110921806EE
:1040E0001092170610921A0610921906882309F4E6
:1040F0009EC02EE047EE57E060E080E00E94F92A83
:1041000029E030E044E650E069E070E080E090E0D3
:104110000E94B52580E390E09093180680931706DF
:1041200086E390E090931A06809319068BED97E052
:104130000E94402408E010E0109318060093170630
:1041400082E190E090931A068093190626E045EDEF
:1041500057E062E188E00E94F92A10931806009364
:1041600017068BE190E090931A068093190628E0D9
:104170004DEC57E06BE188E00E94F92A1093180695
:104180000093170684E290E090931A068093190634
:1041900026E047EC57E064E288E00E94F92A109399
:1041A0001806009317060DE210E010931A0600930C
:1041B000190624E043EC57E06DE288E00E94F92AFA
:1041C00088E290E0909318068093170610931A06E1
:1041D00000931906EB81FC81EA5AFE4F8081882307
:1041E00019F080EB91E002C083EB91E00E949A27E6
:1041F0008A811092180610921706E9E08E9FC0017E
:104200001124429690931A0680931906809108060D
:1042100080FD5CC087E797E0DF91CF911F910F9100
:10422000EF90DF90CF90BF90AF900C9440248DEA38
:1042300097E00E94402480E390E0909318068093DA
:10424000170686E390E090931A068093190681EA98
:1042500097E00E94402408E010E0109318060093B5
:10426000170682E190E090931A068093190689E977
:1042700097E00E94402410931806009317068BE1E4
:1042800090E090931A06809319068DE897E00E94BB
:104290005B24109318060093170684E290E0909335
:1042A0001A068093190684E897E00E945B24109315
:1042B0001806009317068DE290E090931A068093FB
:1042C000190689E797E00E94402484CFDF91CF91BF
:1042D0001F910F91EF90DF90CF90BF90AF90089516
:1042E0001F93CF93DF93EC0188E00E941F24882363
:1042F00009F461C08B819C81FC01E85BFE4F108258
:104300001182128213821A81113091F1A0F01230C1
:1043100009F443C0133009F081C0FC01EA5AFE4F92
:10432000908181E08927808364E670E080E793E0F4
:104330000E94872973C0DC01AF5ABE4FFC01208167
:104340003181F901268137816C91F90109958B81C1
:104350009C81FC01EB5AFE4F10823496108264E679
:1043600070E080E793E00E94872982E090E058C0E7
:10437000DC01AF5ABE4FFC0120813181F901268159
:1043800037816C91F90109958B819C81FC01EB5A75
:10439000FE4F10823496108305C0FC01EB5AFE4F8D
:1043A00021E0208364E670E080E793E00E948729A3
:1043B00083E090E035C080E80E941F24882359F0F4
:1043C0008A81882341F081508A8362E370E088EB20
:1043D00091E00E94872980E10E941F24882359F0E0
:1043E0008A81833040F48F5F8A8362E370E088EBD8
:1043F00091E00E9487290B80DC81C02DC85BDE4FD5
:104400002DEC3CEC4CEC5DE3688179818A819B81E9
:104410000E940130688379838A839B8380E090E0E7
:10442000DF91CF911F91089588E00E941F24882377
:1044300049F064E670E080E793E00E94872983E01A
:1044400090E0089580E090E00895CF92DF92EF929F
:10445000FF920F931F93CF93DF93CDB7DEB7A09753
:104460000FB6F894DEBF0FBECDBF8C010E94AC2505
:10447000109218061092170610921A06109219063A
:1044800081E797E00E944024D8011496CD90DC90FB
:104490001597BFEFCB1ADB0A0D2C000CEE08FF08B6
:1044A000F7FE0EC06DE281E096E00E94F6296627D5
:1044B0007727CB016C197D098E099F094AE003C05B
:1044C0004AE0C701B6010E9467246AE381E096E0F2
:1044D0000E94F629D8011496ED91FC911597EE0FE4
:1044E000FF1FEF5AF84F65917491CE0101960E941B
:1044F0007A2FCE0101960E949A27109218061092E8
:10450000170680E190E090931A0680931906D8016F
:104510001696ED91FC911797EA5AFE4F208114965A
:104520008D919C911597222309F4AFC08430910599
:1045300024F5823091050CF083C0009709F445C042
:10454000019709F09AC029E04FE157E060E188E067
:104550000E94F92A109218061092170688E190E03E
:1045600090931A068093190687E197E00E945B24D6
:104570002AE04DE057E068E17EC0049709F07DC075
:1045800029E04CEE56E060E188E00E94F92A1092A2
:1045900018061092170688E190E090931A0680930F
:1045A000190684EE96E00E945B2428E04CED56E06C
:1045B00068E188E20E94F92A84ED96E00E945B247B
:1045C00028E04CEC56E060E256C029E048E457E0B1
:1045D00060E188E00E94F92A1092180610921706EE
:1045E00088E190E090931A068093190686EB91E09B
:1045F0000E949A2727E041E457E068E188E20E94A0
:10460000F92A8DEB91E00E949A2727E04AE357E0D0
:1046100060E288E20E94F92A84EC91E00E949A27E5
:104620002CE04EE257E068E288E20E94F92A8BEC27
:1046300091E00E949A2726E048E257E060E31BC021
:1046400029E044E057E060E188E00E94F92A1092F6
:1046500018061092170688E190E090931A0680934E
:1046600019068AEF96E00E945B2425E045EF56E0AC
:1046700068E180E307C088E205C02DE04FEB56E01B
:1046800060E188E00E94F92A3CC08430910574F40E
:10469000823091055CF50097B1F0019771F58FE5D7
:1046A00096E00E945B248BE496E029C0049729F5EC
:1046B00087E196E00E945B2488E096E00E945B24FC
:1046C00087EF95E01CC08DEA96E00E945B248FE99D
:1046D00096E00E945B2480E996E00E945B248EE7CE
:1046E00096E00E945B2481E796E009C089E396E0AA
:1046F0000E945B2489E296E002C082EE95E00E946F
:104700005B242BE248E76EE070E084E090E00E94DA
:104710004827A0960FB6F894DEBF0FBECDBFDF913D
:10472000CF911F910F91FF90EF90DF90CF90089560
:10473000CF93DF93EC010E94AC2520E440E860E0D9
:1047400070E080E090E00E944827E881F981048CC5
:10475000F58DE02DCE010995FE01E05BFE4F8081D5
:1047600080FD0CC032968081882341F0E881F98178
:10477000068CF78DE02D61E0CE010995FE01E75A28
:10478000FE4F80818823A1F081E090E0909318068D
:104790008093170687E390E090931A06809319069A
:1047A00032976081718180E090E04AE00E94672446
:1047B000FE01EC5AFE4F8081882349F0E881F9819F
:1047C000028CF38DE02DCE01DF91CF910994DF9122
:1047D000CF9108959C01240F311D1216130674F514
:1047E000803891055CF597FF02C080E090E02138A9
:1047F000310514F020E830E0281BAB014770552745
:1048000031E001C0330F4A95EAF777FF02C0695FD4
:104810007F4F43E0759567954A95E1F77695762F3A
:10482000662777956795860F971FFC01EF50FE4F1F
:10483000215020F08081832B8193FACF089520911D
:104840000B06282329F490910A06982381E009F4A5
:1048500080E00895009769F0FC0101900020E9F7DD
:104860003197AF01481B590BBC0181E096E00C94D5
:104870002D2880E090E0089582ED91E00C942A24A8
:104880000F931F93CF93DF938C01C0E0D0E0F8012A
:10489000EC0FFD1F6491662341F081E096E00E94D9
:1048A000F629892B11F02196F2CFCE01DF91CF911D
:1048B0001F910F910895CF93DF930E944024EC0144
:1048C0000E943C248C0F9D1FDF91CF9108958F9201
:1048D0009F92AF92BF920F931F93CF93DF93CDB769
:1048E000DEB7A1970FB6F894DEBF0FBECDBF19A2F9
:1048F000423008F44AE08E010F5D1F4F842E912C48
:10490000A12CB12CA50194010E94C92FE62FB90159
:10491000CA0101501109EA3014F4E05D01C0E95CFC
:10492000D801EC93232B242B252B61F7C8010E947F
:104930002A24A1960FB6F894DEBF0FBECDBFDF913B
:10494000CF911F910F91BF90AF909F908F9008953E
:104950002F923F924F925F926F927F928F929F928F
:10496000AF92BF92CF92DF92EF92FF920F931F937D
:10497000CF93DF93CDB7DEB72A970FB6F894DEBF9B
:104980000FBECDBF5A01822E912C9401280F391FE2
:1049900037FDBAC0803891050CF0B6C09B01200FDE
:1049A000311D37FDB1C0603471050CF0ADC0AB01F5
:1049B00077FF04C044275527461B570B47705527E0
:1049C0009B0177FF02C0295F3F4FE3E035952795B4
:1049D000EA95E1F777FF08C02150310968E070E0FF
:1049E000FB01E41BF50BAF01202E269426942694A0
:1049F000312C077019F0FFEF2F1A3F0A220E331ED9
:104A000039017694762C662477946794680E791E23
:104A1000E12CF12C00E010E0B30160587F4F7A8761
:104A2000698768E070E0FB01E41BF50BFA83E9831A
:104A30002216330609F468C02830310509F464C031
:104A40002F3FFFEF3F070CF454C0E985FA85E00FD4
:104A5000F11FBF016F507E4F7C836B83D801A60D81
:104A6000B71DAF50BE4F6C0160E070E0681579056E
:104A70000CF03FC0E0E8CE16D10409F43AC0D7FCF0
:104A80002CC02F3FFFEF3F0709F43AC0FB01EE0DAA
:104A9000FF1DEA0DFB1DE491042E01C0EE0F0A94E8
:104AA000EAF7FC91EF2BEC9341155105B1F027305B
:104AB000310599F0FB01EE0DFF1DEA0DFB1DE491A0
:104AC0004E2E512C098002C0559447940A94E2F767
:104AD000EB81FC815080452840826F5F7F4FEB81E6
:104AE000FC813196FC83EB83FFEFCF1ADF0A11962E
:104AF000BDCF2F5F3F4F00581F4FE80CF91C98CFD8
:104B000041155105B9F6E9CF2A960FB6F894DEBFE4
:104B10000FBECDBFDF91CF911F910F91FF90EF900E
:104B2000DF90CF90BF90AF909F908F907F906F90CD
:104B30005F904F903F902F90089520E081EF91E09B
:104B4000B22FB111BFEFFC010024B193B193B19327
:104B5000B1930394D1F708950E949D25E1E0F6E01A
:104B6000118E108E178A168A08952F923F924F92B7
:104B70005F926F927F928F929F92AF92BF92CF92ED
:104B8000DF92EF92FF920F931F93CF93DF93EC018D
:104B90008B017A016901C61AD70AD7FE03C0D194E6
:104BA000C194D1085701AC1ABD0AB7FE03C0B19435
:104BB000A194B108AC14BD0454F49E2D8F2D79013D
:104BC000292F382F9C2F8D2FE801092F182FEC1635
:104BD000FD0654F4902F812F8901292F382F9C2F07
:104BE0008D2FE701E92EF82E17012C1A3D0A290115
:104BF000401A510A57FE03C05194419451083101A3
:104C000037FE03C08FEF681A780A7594679402170D
:104C1000130714F08FEF01C081E0882E880F9908E8
:104C2000EC16FD06BCF021E0AC14BD041CF4AE0192
:104C3000B80102C0A801BE0185E096E00E94D82913
:104C40006418750877FE04C0080D191D620C731CEA
:104C50002196E6CFDF91CF911F910F91FF90EF90BA
:104C6000DF90CF90BF90AF909F908F907F906F908C
:104C70005F904F903F902F9008952F923F924F92C8
:104C80005F926F927F928F929F92AF92BF92CF92DC
:104C9000DF92EF92FF920F931F93CF93DF9300D099
:104CA00000D0CDB7DEB77C018B01242F30E03C83F0
:104CB0002B8381E090E05C01A21AB30A19013194C0
:104CC00021943108220C331CA901460F571F21E003
:104CD000B70185E096E00E94D829A8018B819C81CC
:104CE000481B590B21E0B70185E096E00E94D829C6
:104CF0006B817C816E0D7F1D21E0A80185E096E02F
:104D00000E94D829B7012B813C81621B730B21E0E3
:104D1000A80185E096E00E94D829C12CD12C81E021
:104D200090E09A8389832B813C81C216D3060CF0D4
:104D30006DC0B7FC09C0215031093C832B8332E0A0
:104D4000230E311CA20CB31C8FEFC81AD80A29817C
:104D50003A812E5F3F4F3A832983A20EB31E37015B
:104D60006C0C7D1C21E08B809C80800E911EA40128
:104D7000B30185E096E00E94D82927014C185D0810
:104D800021E0A401B20185E096E00E94D82921E04B
:104D900048018B819C81881A990AA401B30185E09E
:104DA00096E00E94D82921E0A401B20185E096E0B6
:104DB0000E94D8294601800E911E21E0A4016B803B
:104DC0007C806E0C7F1CB30185E096E00E94D829A0
:104DD00021E0A40127018B819C81481A590AB20164
:104DE00085E096E00E94D82948018C189D0821E0B2
:104DF000A401B30185E096E00E94D82921E0A40136
:104E0000B20185E096E00E94D8298DCF0F900F90D7
:104E10000F900F90DF91CF911F910F91FF90EF9026
:104E2000DF90CF90BF90AF909F908F907F906F90CA
:104E30005F904F903F902F900895DF92EF92FF92F6
:104E40000F931F93CF93DF937C01D22E8B01040F1E
:104E5000111DEB0177FF02C0C0E0D0E0C8010134B2
:104E6000110514F080E490E0C817D9074CF42D2DFB
:104E7000AE01B70185E096E00E94D8292196EECFD9
:104E8000DF91CF911F910F91FF90EF90DF900895E8
:104E9000EF92FF920F931F93CF93DF93EC018B015F
:104EA000E42EF22E6034710510F40E94EA23B8015A
:104EB0006F0D711D615071096034710520F44E2D24
:104EC000CE010E94EA2321E04F2DB801CE010E94BD
:104ED0001D27CE018E0D911D21E04F2DB8010197A8
:104EE000DF91CF911F910F91FF90EF900C941D27B0
:104EF0009C01E1E7F0E090819D7F90831092F001AA
:104F0000E1EFF5E0F093EF01E093EE01F093ED01B6
:104F1000E093EC013183208389E190E093838283E5
:104F2000758364839783868380E090E89187808788
:104F30000C947928CF93DF930E942A24EC010E94DD
:104F40003C248C0F9D1FDF91CF9108950F931F93E9
:104F5000CF93DF93CDE8D7E0EBE2F6E0FC83EB8381
:104F60000190F081E02D068117810E94232F20E11E
:104F700030E040E050E00E94972F8B819C81F80147
:104F800009951A82DF91CF911F910F910895809119
:104F9000F1018EBDE2EFF1E081EF95E021910DB4DA
:104FA00007FEFDCF2EBD8E179F07C1F70DB407FE7C
:104FB000FDCF08952091EB01211103C08FEF9FEFEA
:104FC00008955FB7F89422E02093E9002091F20061
:104FD00030E01216130614F421E030E0422FFC01F9
:104FE00084E6415038F028988093EA019091F100CE
:104FF0009193F7CF2115310521F08091F20088239C
:1050000019F05FBFC90108958BE68093E800F9CFDE
:105010002FB7F89483E08093E9009091E800892FFE
:10502000807295FF04C09091F20080E4891B2FBF2D
:1050300008958091960781110DC082E080939207B8
:1050400084E080939307109295071092940781E073
:105050008093960782E997E00895CF92DF92EF92CE
:10506000FF920F931F93CF93DF936C017A018B0113
:10507000C0E0D0E0CE15DF0581F0D8016D918D0143
:10508000D601ED91FC910190F081E02DC6010995CA
:10509000892B11F02196EECF7E01C701DF91CF91D0
:1050A0001F910F91FF90EF90DF90CF900895809126
:1050B000F001E091EE01F091EF01882349F0CF017A
:1050C00002969093EF018093EE018591949108955B
:1050D000CF0102969093EF018093EE018081918140
:1050E00008958091D60108950895089580E090E094
:1050F0000895CF92DF92EF92FF920F931F93CF9379
:10510000DF930E945728811520E8920761F480916F
:1051100071008D7F8093710010929100469847989E
:105120001092F0078BC021E02093F007813020E837
:10513000920751F48091EC019091ED019093EF0171
:105140008093EE010E94572897FD05C02091EF073C
:10515000222309F43FC02091EE0721113BC021E03A
:105160002093F107EC01DF77209769F481E08093C9
:10517000F20746983FE9C32E3FE0D32EE12CF12CF5
:10518000CAEFD0E014C08E0120E030E060E472E4A9
:105190008FE090E0A90198010E94972F69017A01A0
:1051A00081E0C81AD108E108F1081092F207E091F5
:1051B000FF05F09100060995811103C081E08093FD
:1051C000F2078091F1078823B9F18091F2078111EC
:1051D00033C003C01092F107C5CF46992DC0479A3E
:1051E0000E945728009771F09C01DE010E94EB2F6E
:1051F000DC01CB0129E0B595A795979587952A9570
:10520000D1F703C08FEF9FEFDC01109290002AE0EE
:1052100020939100D0929900C09298008093F30758
:105220009093F407A093F507B093F607809171006F
:1052300082608093710002C04798D2CFDF91CF91F6
:105240001F910F91FF90EF90DF90CF9008951F92E4
:105250000F920FB60F9211242F933F934F935F93AA
:105260006F937F938F939F93AF93BF93EF93FF932E
:105270008091F3079091F407A091F507B091F6079C
:10528000892B8A2B8B2B81F18091F20781110BC026
:1052900098B180E4892788B98091F107882319F0B3
:1052A00088B1805888B98091F3079091F407A09154
:1052B000F507B091F607181619061A061B06B4F47E
:1052C0008091F3079091F407A091F507B091F6074C
:1052D0000197A109B1098093F3079093F407A09374
:1052E000F507B093F60702C00E947928FF91EF916D
:1052F000BF91AF919F918F917F916F915F914F91EE
:105300003F912F910F900FBE0F901F9018959C0109
:10531000E1E7F0E090819D7F90831092F001E1EF52
:10532000F5E0F093EF01E093EE01F093ED01E093EF
:10533000EC01318320837383628380E090E895835E
:1053400084830C9479282D9A0895BC0180E090E024
:105350000C94721F8FB12CB193B130E02095309531
:1053600020743327A90123E0559547952A95E1F745
:10537000292F30E0209530952071332735952795DA
:1053800035952795242B8095807F822B089583B7B0
:10539000817F83BF83B7816083BF889583B78E7F0A
:1053A00083BF08958EBD00000DB407FEFDCF0895A4
:1053B00060387105D0F440345105B8F4E5E7FFE0FA
:1053C00080E1849FD001A0781124A60F4770E40FDC
:1053D000F11D4491AF50BE4F222319F0EC914E2B9A
:1053E00003C04095EC914E234C9308952F923F9229
:1053F0004F925F926F927F928F929F92AF92BF92E5
:10540000CF92DF92EF92FF920F931F93CF93DF9390
:10541000CDB7DEB729970FB6F894DEBF0FBECDBF6C
:105420009A8389836A30A1F4DC015C962C915C97A5
:1054300058968D919C915997B8E02B9F800D911DA6
:105440001124E981FA81918F808F178A168AB6C05C
:105450006D3009F4B3C029813A8139872887D90191
:1054600056960D911C91579700381105BCF0E885B0
:10547000F985248D422F50E086899789F6E02F9F89
:10548000800D911D1124A885B98557969C938E9304
:1054900056975D962C9121117BC090C0E885F985C7
:1054A000208C318CF0E42F1631040CF7A885B985D7
:1054B0005C96FC90C801B5E0FB9E800D911D112407
:1054C00018161906A4F6EF2DF0E0FD83EC83C10158
:1054D000F8E0FF9E800D911D1124181619063CF668
:1054E000A885B9855B964C905B975A96BC91BB8317
:1054F000E5E06E9FB00111249B012358304F3A83A1
:105500002983E12C8885998504969F838E83E98180
:10551000FA817490F5E0EF1201C0712C510188E01E
:10552000682E70FE02C05B8001C0542C511003C075
:105530002B814216C9F068018C2D801B8F15A0F4B9
:105540004501882D8A198F1558F4252DA401B6011F
:105550008E819F810E94D8293FEF831A930AF1CF51
:105560008FEFC81AD80AE8CF76946A94AC81BD81CF
:10557000AA0EBB1E6110D5CFE3940A0F1B1FE98151
:10558000FA813196FA83E983F6E0EF12C0CF6FCF4C
:105590006AEF64039001659F300D112420583F4F3E
:1055A000281739075CF4A885B985ED91FC9111970E
:1055B0000190F081E02D6AE0CD01099581E090E055
:1055C00029960FB6F894DEBF0FBECDBFDF91CF9105
:1055D0001F910F91FF90EF90DF90CF90BF90AF9011
:1055E0009F908F907F906F905F904F903F902F9003
:1055F0000895DF92EF92FF920F931F93CF93DF9363
:1056000000D01F92CDB7DEB7182FD62E4A835B830A
:10561000EA80FB80E20EF11C8A819B818E159F053A
:1056200099F1FC014491413F29F0423F31F0403F64
:1056300031F422C0F1EFF98321C082EF1EC09981BD
:10564000903FE1F4403FD0F4812F90E089379105FD
:105650001CF0E8E0DE0E10E0F8E04F9FA0011124FE
:105660004B50584F6D2D70E008E028E0812F90E0FE
:105670000E94A824185F02C080EF8983EA81FB8121
:105680003196FB83EA83C8CF0F900F900F90DF9184
:10569000CF911F910F91FF90EF90DF900895789434
:1056A00084B5826084BD84B5816084BD85B5826027
:1056B00085BD85B5816085BD80916E0081608093D8
:1056C0006E00109281008091810082608093810041
:1056D0008091810081608093810080918000816051
:1056E00080938000809191008260809391008091EE
:1056F00091008160809391008091900081608093FF
:1057000090008091C10084608093C1008091C100AD
:1057100082608093C1008091C10081608093C1004C
:105720008091C30081608093C3008091C00082603B
:105730008093C0008091C20081608093C2008091FC
:105740007A00846080937A0080917A0082608093EE
:105750007A0080917A00816080937A0080917A004B
:10576000806880937A001092EB011092E20110920F
:10577000E3018091D70081608093D70080EA809315
:10578000D80089B5806189BD89B5826089BD09B4B9
:1057900000FEFDCF61E070E080E090E00E94721FAB
:1057A0008091D8008F7C80618093D8008091E00048
:1057B000807F8093E0008091E1008E7E8093E10005
:1057C0008DE08093E200559A209A81EC80937C00D2
:1057D00085B1806F85B9249884B1866E84B95E9A4C
:1057E0005F988AB1806D8AB9769A6E9881B3806F1E
:1057F00081BB899880B38D7080BB80E58CBD81E0D2
:105800008DBD85E090E00E94A5295F9A85E090E03B
:105810000E94A5295E985C98CEEBD4E0FE018491AD
:105820000E94D2292196F4E0CB3CDF07B9F75C9ABD
:1058300081E88093640081E080936500C0E0D4E05B
:1058400080E00E94D2292197D9F70E94AA2987FFD8
:105850001FC05C9885EA0E94D2295C9A2E982F98E6
:105860002D98809164008062809364000E94C72913
:10587000FDCF2D980E94AA298478843871F00E9467
:10588000AA298471843131F188EC90E00E94A52925
:105890000E94AA2982FDEDCF3AC00E94A32988EC7C
:1058A00090E00E94A5292F9882E090E00E94812F2D
:1058B0008F3F29F06FEF82E090E00E94892F84EF04
:1058C00091E00E94A5292F9A0E94AA298478843801
:1058D000D9F3D5CF0E94A32988EC90E00E94A52996
:1058E0002E9882E090E00E94812F882329F060E0CA
:1058F00082E090E00E94892F84EF91E00E94A52928
:105900002E9A0E94AA2984718431D9F3BDCF0E94B6
:10591000A32982E090E00E94812F882331F03E9AF3
:105920003F9A81E08093D60104C01092D6013E9840
:105930003F982E98CEEEDFEF0E94AA2986FF05C081
:105940002E9A2F9A0E94A32933C0CC3F8FEFD807FD
:1059500019F42E9A2F9805C0C831D10511F42F9A49
:105960002D980E949D2500E128E54EE054E0BE01FF
:1059700084E190E00E94A8240E94C7278BE190E078
:105980000E94A529C03FAFEFDA0721F48AEF90E02B
:105990000E94A5292196C931D10571F68CEB92E0C0
:1059A0000E94A5290E94A32981E096E00E94942EDE
:1059B00082E390E00E94A5290E94AA298111F8CFD4
:1059C00081E280930C068BE296E00E946A0A0E94B4
:1059D000A6278BE296E090938C0780938B0724E6B2
:1059E00030E03093880720938707909328068093B0
:1059F000270610922A061092290610922406109269
:105A0000230690932206809321068DE897E09093D9
:105A1000D8018093D7015524539420E0622E20E0D2
:105A2000722E05E817E035E2E32E36E0F32E4BE266
:105A3000C42E46E0D42E5FE1A52E56E0B52E4C01D3
:105A40002FB7F8948091DA019091DB01A091DC01ED
:105A5000B091DD012FBF20911506222341F0209146
:105A60000D06821B809316061092150686C0409183
:105A70001106509112066091130670911406841756
:105A80009507A607B70738F4481B423008F475C0DD
:105A90000E94C72972C05092150680930D069093FC
:105AA0000E06A0930F06B093100620910C06820FED
:105AB000911DA11DB11D8093110690931206A09314
:105AC0001306B0931406809108069091090601967A
:105AD000909309068093080680910A0680930B062E
