:100000000C94300A0C94580A0C94580A0C94580A10
:100010000C94580A0C94580A0C94580A0C94580AD8
:100020000C94580A0C94580A0C94F7130C94691405
:100030000C94580A0C94580A0C94580A0C94580AB8
:100040000C94580A0C94580A0C94580A0C94580AA8
:100050000C94580A0C94580A0C94580A0C94EA25EB
:100060000C94580A0C94580A0C94580A0C94580A88
:100070000C94580A0C94580A0C94580A0C94580A78
:100080000C94241F0C94580A0C94580A0C94580A87
:100090000C94580A0C94580A0C94580A0C94580A58
:1000A0000C94580A0C94580A0C94580A05A84CCD84
:1000B000B2D44EB93836A9020C50B9918688083CA2
:1000C000A6AAAA2ABE000000803F0300030803047A
:1000D00003080300020203000203030002020302FA
:1000E00002020302010103040203030401010304E9
:1000F00001020306020203060101000000000000E5
:1001000002080000020600000203020103010203CC
:1001100003010205030102070301000003020000BE
:10012000040203010501030305010305050103079B
:1001300005010000000000000108000002030100AA
:100140000301020003020300030301020301020290
:100150000302030203030104030102040302030474
:100160000303010603010206030203060303000062
:100170000000000002080000020702000203020063
:10018000020402000402020003020203020302034B
:100190000202010305010203050102050203020533
:1001A0000102010505010205050100000000000033
:1001B0000208000001020000010300000105030025
:1001C0000101030001020002010503010101030115
:1001D00001020302010103020102030301010303FF
:1001E00001020304010103040102030501010305E7
:1001F00001020306010103060102030701010307CF
:1002000001020000000000000208010102010107D4
:1002100002010201020302070203020401020000BC
:1002200003010000000000000201000002050300BD
:100230000501030105010302050103030501030490
:10024000050103050501030605010307050100007B
:100250000000000001060200010202020102020485
:100260000102020601020301030103030301030566
:100270000301030703010000000000000208020060
:10028000020402000203020001020204020402044A
:100290000303020404030302040203060402000031
:1002A0000000000002080100020601000205010032
:1002B0000304010004040000000000000208000024
:1002C0000207000003060000040600000000000012
:1002D00002080000020702000203020402030000F9
:1002E00000000000010500010105000002070000F8
:1002F00002080000020100000202000002030000E8
:1003000000000000010600010106000002040000D8
:1003100002050000000000000208000002070000C3
:1003200001040000000000000208000002070000B5
:10033000020400000000426967536869656C64004C
:10034000486F6C79506F72740053687572696B6591
:100350006E00547269706C65506F776572005371EE
:10036000756172466C6F7765720046616365005314
:10037000756E456E657267790053686172706E655F
:100380007373005477696E456C656D656E74004CCF
:10039000756E61506F77657200486F6C794865784B
:1003A000005477696E466F7263650053696D706CB7
:1003B000654D616769630053756E4C6967687400C9
:1003C00053696D706C65526563740053696D706C30
:1003D00065436972636C6500202020202020202066
:1003E000202062792040696E615F616E6900202083
:1003F0002020202020202020202020205665722030
:10040000312E31002020202041505052454E544979
:1004100043452057495A41524400202020202020A3
:100420002020594F555220504C4159212100544809
:10043000414E4B20594F5520464F5200414C4C20C5
:10044000434C454152002020202020202020202005
:1004500062792040696E615F616E69002020202012
:100460002020202020202020202056657220312EA0
:1004700031002020202041505052454E54494345E0
:100480002057495A41524400F0445F9569518E68A3
:10049000448C4E6A480909414C4C20434C4541521A
:1004A00000434C45415200467265657374796C6532
:1004B000004E6F7468696E6720746F2074656163A5
:1004C000682E2E2E002020422B19203A204D6F76C8
:1004D0006520646F776E002020422B18203A204D53
:1004E0006F7665207570002D204C4553534F4E207C
:1004F00034202D002020422B1B2C1A203A20526F32
:1005000074617465002D204C4553534F4E203320A9
:100510002D0020201B201A203A204368616E676559
:10052000207368617065002D204C4553534F4E2059
:1005300032202D002020422B41203A205265736545
:1005400074002020412020203A20447261772073DB
:1005500068617065002020182019203A20436861E6
:100560006E67652073697A65002D204C4553534FA3
:100570004E2031202D00F04C594A8D556A716C6D1A
:10058000846C46F059617A48564D5B2020422B1806
:10059000203A00F0484A7A48564D5B2020422B18FA
:1005A000203A00F05F48577D487D483DF04D466851
:1005B000952020422B1B2C1A203A00F05F48577DD3
:1005C000487D483CF05C5346944F8C4D4A8D20202A
:1005D0001B2C1A203A00F05F48577D487D483BF0BD
:1005E000868C6C4C5BF1211A00F05C5346944A4EA9
:1005F00051F0634657515B8DF04C4C4F515B8DF081
:100600005F48577D487D483ACB03C003B703AB032F
:10061000A10399038F03830379036F036A035E03C6
:100620005203490340033603535441474500F0F851
:100630009C8E8783878E9CF8F00000FEFF030303E7
:100640000303070EFCF80000FEFF03030303030788
:100650000EFCF80000FFFF00000000000000FFFF9C
:100660000000FEFF8383838383C7EE7C380000F89D
:10067000FC0E07030303070EFCF800003F7FE0C0F9
:100680008080C0E07F3FFFFF01010101010101FF08
:10069000FF0000FFFF0C0C0C0C1C3E77E3C10000B8
:1006A0007FFFC0C0C0C0C0E0703F1F00001F3F7090
:1006B000E0C0C0C0E0703F1F00007FFFC1C1C1C1EA
:1006C000C1E3773E1C00001F3F70E0C0C0C0E07077
:1006D0003F1F000000000001FFFF01000000D5F0F7
:1006E0008D14A1C881CFD9F1AF2000080B00020200
:1006F00002010009040000010202000005240010AC
:100700000105240101010424020605240600010755
:1007100005810310004009040100020A00000007DF
:10072000050202400000070583024000000403099F
:100730000412010002EF0201404123368000010152
:1007400002030141726475696E6F204C4C43004195
:10075000726475696E6F204C656F6E6172646F00B4
:10076000DB004C616E67756167653A200046726513
:10077000657374796C650054696D652041747461AA
:10078000636B004172636164652000627920406997
:100790006E615F616E69000F2041505052454E54AA
:1007A0004943452057495A415244200F00F054957F
:1007B00056F04C4A4D4FF0B499D597B4B8A4F09781
:1007C000EEA6EEBE62792040696E615F616E6900DF
:1007D000F0816C8B46F100F0807D48664D4600004C
:1007E0000000000000002040000000000000205039
:1007F0002000000000005030000000000000606099
:1008000000000000000000001818000000000000B8
:1008100036360000000000005636000000000002DE
:100820000151090906000000005F000000000000FF
:1008300000007F41410041417F00000000000000B6
:10084000003F010101004040407E00000000000028
:100850003F213D05070070505E427E000000000011
:1008600000007F63410041637F0000000000080832
:10087000087F080808000808080808080800444419
:10088000445F4444440041221408142241000808F3
:10089000082A08080800141414141414140014343A
:1008A000141C141614000808141414222200222206
:1008B0001414140808000205023C42422400002BD4
:1008C0002C782C2B000000242A7A2F2A1200001CDE
:1008D00062322E23140020545E254142200042251E
:1008E00012082452210020623E633E23020020565B
:1008F0004955225840000022147F142200001C2277
:1009000059554D120C0000004A5555290000046449
:100910003C173C64040004643C1F3C6404001C223B
:10092000414141221C001C3E7F7F7F3E1C001C2257
:100930005D555D221C000814224122140800081C89
:100940003E7F3E1C08007F41414141417F007F7F47
:100950007F7F7F7F7F0040704C434C704000407031
:100960007C7F7C70400001071961190701000107B5
:100970001F7F1F0701004922144914224900050561
:10098000057D05050500080808082A1C0800081C44
:100990002A08080808000004027F02040000001072
:1009A000207F20100000003E414141413E000000F8
:1009B000427F400000000062515149494600002238
:1009C00041494949360000302824227F2000002F69
:1009D000454545453900003E494949493200000135
:1009E00001611905030000364949494936000026CE
:1009F000494949493E000020547E34146000205289
:100A00007F2A1A4A3000003C4020041800001E20B3
:100A100040200204180000104A4A2A100000000872
:100A200045454525180000482A3A4A400000004440
:100A300025153D45400000247E145024000022521C
:100A40007F0A484A340044344F4438041800443480
:100A50004F4439041900002A5A4B4E5A0800002A04
:100A60005A4B4E5B08000008141422410000000895
:100A70001414224504003F0004443F0404003F00D6
:100A800004443F040500002052424242400000203E
:100A900052424342410000245444475C0400002475
:100AA0005444475C050000003F40404020000000E7
:100AB0003F404140210002020A563F02020002026A
:100AC0000A563F02030004043F44545F44000404F8
:100AD0003F44545F45000008093D4B4908000008A9
:100AE000093D4B490A00423A072254444400423A25
:100AF0000722554445000002124E4B4A32000002C4
:100B0000124E4B4A330000101048483000000404D5
:100B1000022222221C000404022223221D000002C1
:100B2000021A254341000002021A25434500002015
:100B30005748484444000020574849444500120A99
:100B40002752503A24007F00205242424000304E4B
:100B500038540F64780024147F0422523C00182477
:100B6000124E422418007F002454543F44007F005A
:100B70002454543F45007F002454563D4600023A19
:100B80004740413E0400023A4740413E0500023AD8
:100B90004740433D06004030404D32106000403039
:100BA000404D321161004030404D32156200080462
:100BB00002040810100008040204091011000804BF
:100BC00002040A1512007F006A6A7E2A4A007F002A
:100BD0006A6A7F2A4B007F006A6A7E2D4A00006A9B
:100BE0006A6A7F2A4A0030291D4B483C1000122AAD
:100BF0007F4240422400304E38540F443800000AEF
:100C00003E4B4A4A300000080E38461408000407DC
:100C10001C62030A0400001C483E241800001E0445
:100C2000523F12120C00002050503E48000000209D
:100C300050503F244400001C51494A483000000FE6
:100C40004241211E00000010696D4B493000241400
:100C50007F04023E40000010494D4B4930000028FF
:100C6000187E0844380024147F0442423C00304976
:100C7000251F245438004028255735284000100AE5
:100C80002E5B724A480040300C3340402000000484
:100C9000443C140C00000001413D09050300002004
:100CA000201078040000001010087C0201000018D9
:100CB000484C281800000006424322120E00004053
:100CC0004878484000002022223E222220000028AE
:100CD00028587C0800002222124A7F0202000042AB
:100CE000221F02427E000042221F02427F000012A9
:100CF000121F721210000012121F7213100000084F
:100D0000444322120E000008444322120F00080739
:100D100042221E020200080742221F020300004274
:100D2000424242427E000042424243427F0002026F
:100D30004F42221F020002024F42231E03000045C1
:100D40004A4020100C0000454A4021100D0040424E
:100D500022221A264000404222221B26410004047F
:100D60003F4444544C0004043F4445544D000001AA
:100D7000464020100F000001464020110F000008DF
:100D8000444B2A120E000008444B2A120F00080A96
:100D90004A3E09090800080A4A3E090809000018E5
:100DA000405820180000020C424C20100E00020C8B
:100DB000424C21100D000405453D050504000405C5
:100DC000453D0504050000007F08081000000000F4
:100DD0007F08091001000444241F04040400202299
:100DE000222222222000404125151927000020221E
:100DF000127B0612200040402010080700004030FF
:100E00000E00020C700040300E00020D71004030E8
:100E10000E00020D7200003F484848444400003F65
:100E2000484849444500003F48484A4546000002BA
:100E3000424222120E000002424223120F00000220
:100E4000424222150E000804020408102000080483
:100E5000020409102100080402040A1522002414C7
:100E6000447F041424002414447F05142500241412
:100E7000447F0615220002021222520A06000021B7
:100E800025294A42000040704C4350204000404415
:100E90002414083700000008093F494948000010A1
:100EA0001C680818000004040F74020A06000040C1
:100EB000484878400000202222223E2020000000E6
:100EC0004454547C000000424A4A4A4A7E000004CE
:100ED000454525150C00000F4040201F0000402014
:100EE0001E007F20100000007F4020100800007EC0
:100EF000424242427E00000C4444241C0000000692
:100F0000424222120E0010121E12127F12002022E4
:100F1000223A262220000001454525150F000041F8
:100F2000424020100C000006424322120F000048ED
:100F3000281C4878000000100C48380800000804FD
:100F40000408101008000800000800000800040849
:100F50000808080808000808080808080808000029
:100F60000000003E5B4F5B3E3E6B4F6B3E1C3E7C89
:100F70003E1C183C7E3C181C577D571C1C5E7F5E37
:100F80001C00183C1800FFE7C3E7FF0018241800F6
:100F9000FFE7DBE7FF30483A060E2629792926408D
:100FA0007F050507407F05253F5A3CE73C5A7F3EB9
:100FB0001C1C08081C1C3E7F14227F22145F5F004B
:100FC0005F5F06097F017F006689956A60606060E7
:100FD0006094A2FFA29408047E040810207E2010D2
:100FE00008082A1C08081C2A08081E101010100CDB
:100FF0001E0C1E0C30383E3830060E3E0E06000029
:1010000000000000005F00000007000700147F14CC
:101010007F14242A7F2A122313086462364956203B
:10102000500008070300001C2241000041221C0060
:101030002A1C7F1C2A08083E08080080703000081F
:1010400008080808000060600020100804023E51F3
:1010500049453E00427F4000724949494621414985
:101060004D331814127F1027454545393C4A4949EC
:101070003141211109073649494936464949291E56
:101080000000140000004034000000081422411445
:1010900014141414004122140802015909063E4197
:1010A0005D594E7C1211127C7F494949363E4141BF
:1010B00041227F4141413E7F494949417F09090918
:1010C000013E414151737F0808087F00417F410084
:1010D0002040413F017F081422417F404040407F33
:1010E000021C027F7F0408107F3E4141413E7F0980
:1010F0000909063E4151215E7F09192946264949C1
:10110000493203017F01033F4040403F1F20402000
:101110001F3F4038403F63140814630304780403FE
:101120006159494D43007F414141020408102000AC
:101130004141417F0402010204404040404000031D
:1011400007080020545478407F28444438384444E9
:101150004428384444287F385454541800087E09E1
:101160000218A4A49C787F0804047800447D400001
:101170002040403D007F1028440000417F40007C1B
:10118000047804787C080404783844444438FC1813
:1011900024241818242418FC7C08040408485454F7
:1011A000542404043F44243C4040207C1C20402024
:1011B0001C3C4030403C44281028444C9090907C8B
:1011C0004464544C4400083641000000770000009D
:1011D0004136080002010204023C2623263C1EA1DF
:1011E000A161123A4040207A38545455592155553E
:1011F00079412154547841215554784020545579EF
:10120000400C1E527212395555555939545454597F
:1012100039555454580000457C410002457D420038
:1012200001457C40F0292429F0F0282528F07C5441
:101230005545002054547C547C0A097F4932494961
:1012400049323248484832324A4848303A414121CE
:101250007A3A42402078009DA0A07D394444443928
:101260003D4040403D3C24FF2424487E4943662BBA
:101270002FFC2F2BFF0929F620C0887E090320545C
:101280005479410000447D413048484A323840405A
:10129000227A007A0A0A727D0D19317D2629292FBA
:1012A00028262929292630484D40203808080808D2
:1012B00008080808382F10C8ACBA2F102834FA00D4
:1012C000007B000008142A142222142A1408950016
:1012D000220095AA005500AAAA55AA55AA00000006
:1012E000FF00101010FF00141414FF001010FF0076
:1012F000FF1010F010F0141414FC001414F700FF89
:101300000000FF00FF1414F404FC141417101F1045
:10131000101F101F1414141F00101010F0000000F4
:10132000001F101010101F10101010F010000000FF
:10133000FF101010101010101010FF10000000FF10
:10134000140000FF00FF00001F10170000FC04F451
:1013500014141710171414F404F40000FF00F71409
:10136000141414141414F700F71414141714101090
:101370001F101F141414F4141010F010F000001FAC
:10138000101F0000001F14000000FC140000F010EB
:10139000F01010FF10FF141414FF141010101F0091
:1013A000000000F010FFFFFFFFFFF0F0F0F0F0FF93
:1013B000FFFF0000000000FFFF0F0F0F0F0F38446A
:1013C0004438447C2A2A3E147E02020606027E022B
:1013D0007E0263554941633844443C04407E201EEC
:1013E0002006027E020299A5E7A5991C2A492A1C1B
:1013F0004C7201724C304A4D4D303048784830BC08
:10140000625A463D3E494949007E0101017E2A2A31
:101410002A2A2A44445F444440514A444040444AB2
:1014200051400000FF0103E080FF000008086B6BE3
:10143000083612362436060F090F06000018180069
:1014400000001010003040FF0101001F01011E00CC
:10145000191D1712003C3C3C3C00000000003429E0
:1014600011241FBECFEFDAE0DEBFCDBF11E0A0E058
:10147000B1E0EAE9FBE502C005900D92AC3BB10793
:10148000D9F727E0ACEBB1E001C01D92A43DB20753
:10149000E1F71AE0C0E3DAE004C02197FE010E9400
:1014A000ED2ACF32D107C9F70E9434260C94CB2DF8
:1014B0000C940000FC01248135812F5F3F4F358360
:1014C000248380E090E0089588E00E9443228823EE
:1014D00049F064E670E080E793E00E94841F83E0B7
:1014E00090E0089580E090E00895CF93DF93EC01C1
:1014F0000E94C5238A819B81DC01ED91FC910480CF
:10150000F581E02D0995E3EFF5E0108A1786128A40
:10151000118A81EA94E0DF91CF910C947F220F939E
:101520001F93CF93DF93CDB7DEB7A0970FB6F89494
:10153000DEBF0FBECDBF8C010E94C52310920306F3
:1015400010920206109205061092040688E296E0B8
:101550000E946422D80113966C9170E06F5F7F4FF8
:10156000072E000C880B990B4AE00E948B226AE33D
:1015700083EF95E00E94CC1FD8011396EC91F0E028
:10158000EE0FFF1FE85FF94F65917491CE01019650
:101590000E946D2ACE0101960E94CB1DD80114969F
:1015A000ED91FC911597EA5AFE4F8081882309F44A
:1015B0008FC0109203061092020688E190E090938B
:1015C00005068093040613968C918430C0F4823013
:1015D00008F067C0882389F1813009F073C029E0E1
:1015E00046ED55E060E188E00E94C6208EEC95E073
:1015F0000E947F222AE044EC55E068E14EC084302E
:1016000009F060C029E043EA55E060E188E00E940B
:10161000C6208BE995E00E947F2228E043E955E04F
:1016200068E188E20E94C6208BE895E00E947F2254
:1016300028E043E855E060E230C029E04FEF55E094
:1016400060E188E00E94C6208FE891E00E94CB1DF7
:1016500027E048EF55E068E188E20E94C62086E96D
:1016600091E00E94CB1D27E041EF55E060E288E267
:101670000E94C6208DE991E00E94CB1D2CE045EE32
:1016800055E068E288E20E94C62084EA91E00E9468
:10169000CB1D26E04FED55E060E388E20E94C620B6
:1016A0005BC029E04BEB55E060E188E00E94C6207A
:1016B00081EB95E00E947F2225E04CEA55E068E14D
:1016C00080E3ECCF2DE046E755E060E188E0E6CF2F
:1016D0008CE090E0909303068093020680E190E016
:1016E0009093050680930406F8018381843068F4A2
:1016F000823038F58823B1F0813051F587E295E0EA
:101700000E947F2282E195E025C0843009F587EEB2
:1017100094E00E947F2287ED94E00E947F2285EC76
:1017200094E018C089E695E00E947F2285E595E067
:101730000E947F2282E495E00E947F2284E395E06C
:1017400009C085E095E00E947F2284EF94E002C00A
:1017500081EB94E00E947F222BE248E76EE070E08C
:1017600084E090E00E949B1DA0960FB6F894DEBF27
:101770000FBECDBFDF91CF911F910F9108952F9292
:101780003F924F925F926F927F928F929F92AF9211
:10179000BF92CF92DF92EF92FF920F931F93CF935E
:1017A000DF9300D000D01F92CDB7DEB77C010E943E
:1017B000C52320E440E860E070E080E090E00E9413
:1017C0009B1DA12CB12C15E047018BEA881A8EEFE6
:1017D000980A1A9DF0011B9DF00D11246701CE0E91
:1017E000DF1EF601329600E0D60112962C9131816F
:1017F000428153816481C7010E94D217F401808124
:1018000081110CC0F601EE55FF4F00E420813181BB
:10181000428153816481C7010E94D217FFEFAF1A42
:10182000BF0A80E2A816B104A1F6D4018C918823E6
:1018300071F088E490E09093030680930206109282
:1018400005061092040687EA94E00E947F221701A1
:10185000B0EB2B1ABEEF3B0AF101808180FDCBC0BB
:1018600032968081882309F4C6C070978081918167
:10187000482F8B839C834701FBEB8F1AFEEF9F0A57
:10188000D4018C9111969C91282F89839A83F7011A
:10189000E95BFE4F60816701B8EBCB1ABEEFDB0A54
:1018A000F601408051806280738010821182128222
:1018B000138200E0392F5C81C7010E94D217F60124
:1018C000408251826282738242E060E270E080E294
:1018D00090E00E94FD24F701EA5BFE4F608170E01A
:1018E000719561957109072E000C880B990B0E9468
:1018F000142CD6012D913D914D915C910E94F32ABB
:1019000020E030E040E050E40E94F32A2BED3FE07D
:1019100049EC50E40E94082D20E030E040E05EE316
:101920000E94082D2B013C010E94752D5B016C016A
:10193000C301B2010E94652B2B013C0120E030E085
:1019400040E051E4C601B5010E94082D20E030E0DE
:1019500040E052E40E94F42A0E94DC2B5B016C01FF
:1019600020E030E040E051E4C301B2010E94082DC4
:1019700020E030E040E052E40E94F42A0E94DC2B98
:101980009501AB0160E270E080E290E00E94772474
:10199000F401808124E030E06901C81AD10883E0B5
:1019A000CC0CDD1C8A95E1F74601F1E08F1A910815
:1019B00021E043E0B40180E290E00E94721D21E04A
:1019C00041E0B60181E290E00E94721D21E043E017
:1019D000B40180E290E00E94721D21E041E0B60176
:1019E0008FE190E00E94721D21E043E0B40180E2AB
:1019F00090E00E94721DF701E75AFE4F8081882314
:101A0000A1F081E090E0909303068093020687E3C3
:101A100090E090930506809304063297608171816F
:101A200080E090E04AE00E948B22F701EC5AFE4FE2
:101A30008081882309F481C0C12CD12C20E040E2B0
:101A400060E170E0C6010E94721D8FEFC81AD80ACB
:101A5000A0E8CA16D10491F720E240E860E170E006
:101A600080E090E00E949B1D1982F701EA5BFE4F27
:101A700030813A8381E0482F82E08D8300EF20E0BF
:101A800050E062E0C7010E94D21782E0482F08E0D0
:101A900029813A8150E06D81C7010E94D21783E00D
:101AA000482F00E229813A8150E06D81C7010E94F0
:101AB000D21784E0482F08E329813A8150E06D81F4
:101AC000C7010E94D21785E0482F8B831C8200E556
:101AD00029813A8150E06D81C7010E94D217F1013E
:101AE000808180FD2AC0F701EE5BFE4F20813181AD
:101AF0002150310948E1429FC001439F900D1124BC
:101B000028E164E170E004960F900F900F900F9021
:101B10000F90DF91CF911F910F91FF90EF90DF9089
:101B2000CF90BF90AF909F908F907F906F905F907D
:101B30004F903F902F900C949B1D0F900F900F9003
:101B40000F900F90DF91CF911F910F91FF90EF9029
:101B5000DF90CF90BF90AF909F908F907F906F90CD
:101B60005F904F903F902F9008952F923F924F9209
:101B70005F926F927F928F929F92AF92BF92CF921D
:101B8000DF92EF92FF920F931F93CF93DF93EC01BD
:101B90001C0188EB281A8EEF380AD101CD90DD9018
:101BA000ED90FC9020E030E0A901C701B6010E9451
:101BB000032D1816BCF42AE037ED43E25CE3C701BD
:101BC000B6010E94032D1816B4F52DEC3CEC4CEC3C
:101BD0005DE3C701B6010E94F32A2B013C014601D7
:101BE00057011AC02AE037ED43E25CEBC701B601AA
:101BF0000E94602B87FF1FC046015701B7FAB094BF
:101C0000B7F8B0942DEC3CEC4CEC5DE3C501B401AD
:101C10000E94F32A2B013C01A5019401C701B601E2
:101C20000E946A2BA30192010E94082DF10160839A
:101C30007183828393833E01FBEA6F1AFEEF7F0A72
:101C4000D3018C91811175C0A12CB12C25E0522EAD
:101C5000812C912C5A9C60015B9CD00C1124CC0EE1
:101C6000DD1EB2EACB0ED11C589CD001599CB00DA0
:101C70001124AC0FBD1FFD0132961296EC90F1803D
:101C8000028113812481D6014C9111965C911197A8
:101C900012966C91129713967C91139714968C91CF
:101CA0000E94D823811108C0BFEF8B1A9B0AE0E283
:101CB0008E169104C9F63DC0FFEFAF1ABF0A80E24D
:101CC000A816B10429F6A12CB12C95E0592E812C2F
:101CD000912C5A9C60015B9CD00C1124CC0EDD1E13
:101CE000E2E0CE0ED11C589CF001599CF00D11245D
:101CF000EC0FFD1FEE55FF4FD601EC901196FC90B6
:101D0000119712960C91129713961C911397149693
:101D10002C91408151816281738184810E94D823FA
:101D20008111E9C1BFEF8B1A9B0AE0E28E16910484
:101D3000D1F688E00E944322882309F4A9C00E94BA
:101D4000A71F82FF47C0809171008D7F8093710033
:101D50001092E20183EE95E09093E1018093E0011F
:101D60009093DF018093DE0180E793E09093E40598
:101D70008093E30584E690E09093E6058093E50583
:101D800028EB31E03093E8052093E7059093EA05CE
:101D90008093E9052CED30E03093EC052093EB05C2
:101DA0009093EE058093ED050E94761EFE01CE0114
:101DB00080569F4F1582148235968E179F07D1F754
:101DC000FE01EC5BFE4F1082D3018C91882309F455
:101DD0005FC08BC15E01BCEBAB1ABEEFBB0AF50165
:101DE0005080FFE1F51508F453C0652C712C85E097
:101DF000589EF00111246F0192E0C90ED11CCC0E47
:101E0000DD1EEC0FFD1FDE01AE5BBE4F8D919C9180
:101E100011979583848313968D919C911197938349
:101E2000828312968C918683812C912C85E0482E9A
:101E3000851408F0A0C1489CD001499CB00D112424
:101E4000AC0FBD1FFD0132961296EC90F18002811D
:101E500013812481D6014C9111965C9111971296B1
:101E60006C91129713967C91139714968C910E9403
:101E7000D823BFEF8B1A9B0A8823D1F285E0869D79
:101E8000F001879DF00D1124EC0FFD1F15821482C7
:101E900080E80E944322882321F10E94A71FFE01AF
:101EA00082FF10C0EB5BFE4F8081833011F4108203
:101EB00002C08F5F808368EB71E08CED90E00E9440
:101EC00055240FC0E95BFE4F8081883011F481E01A
:101ED00001C08F5F808362E370E088EB91E00E9435
:101EE000841F80E10E944322882321F10E94A71FC2
:101EF000FE0182FF10C0EB5BFE4F8081811102C0AA
:101F000083E001C0815080836CED70E088EB91E04C
:101F10000E9455240FC0E95BFE4F8081813011F48F
:101F200088E001C08150808362E370E088EB91E03B
:101F30000E94841F80E40E9443228E010C5A1E4F8F
:101F4000882309F449C00E94A71FFE0182FF19C01F
:101F5000EA5BFE4F8081811102C087E001C08150A1
:101F6000808380E090E0A0E8BFE3F101808391836B
:101F7000A283B3836CED70E088EB91E00E9455245E
:101F80002BC0EE5BFE4F8081918183309105A1F0E3
:101F900040F48130910569F00297A9F483E090E064
:101FA00010C08430910559F0059769F481E090E004
:101FB00008C082E090E005C084E090E002C085E0C7
:101FC00090E09183808388E0D8018C9362E370E095
:101FD00088EB91E00E94841F0E94A71F86FF0DC01E
:101FE0000E94A71F82FD09C088E0F801808362E398
:101FF00070E088EB91E00E94841F80E20E944322FF
:10200000882309F449C00E94A71FFE0182FF19C05E
:10201000EA5BFE4F8081873011F4108202C08F5F2F
:10202000808380E090E0A0E8BFEBF10180839183A2
:10203000A283B38368EB71E08CED90E00E9455249D
:102040002BC0EE5BFE4F8081918183309105B9F00A
:1020500040F48130910569F00297A9F481E090E0A5
:1020600010C08430910541F0059769F484E090E058
:1020700008C085E090E005C083E090E002C082E007
:1020800090E09183808388E0D8018C9362E370E0D4
:1020900088EB91E00E94841F0E94A71F85FF0DC05E
:1020A0000E94A71F82FD09C088E0F801808362E3D7
:1020B00070E088EB91E00E94841FFE01E05BFE4F20
:1020C00080818F5F808339968081882339F0C95A57
:1020D000DE4F88819981019699838883D8018C91FC
:1020E000882331F081508C9303C081E090E04EC092
:1020F00080E090E04BC0BFEFAB1ABB0AE0E2AE1647
:10210000B10409F0E4CD809171008D7F809371005E
:102110001092E20183EE95E09093E1018093E0015B
:102120009093DF018093DE018BE092E09093E405D1
:102130008093E30588EC90E09093E6058093E505B5
:1021400027E134E03093E8052093E7059093EA0512
:102150008093E9058DE298E09093EC058093EB0580
:1021600080E991E09093EE058093ED050E94761E44
:1021700084E090E00BC064E670E080E793E00E94AA
:10218000841FD5018C918F5F8C9382CEDF91CF918C
:102190001F910F91FF90EF90DF90CF90BF90AF9085
:1021A0009F908F907F906F905F904F903F902F9077
:1021B0000895CF93DF93EC010E94C523EA81FB8150
:1021C000EA5AFE4F80811092030610920206109286
:1021D0000506109204068823A1F187E994E00E9485
:1021E0007F22EA81FB81E75AFE4F8081882379F0C4
:1021F0008BEA91E00E944E22EA81FB81E95AFE4F70
:102200006081718180E090E04AE00E948B220E9410
:1022100060222FE048E854E068E180E00E94C62098
:102220000E9460220E9460220E94602282E794E065
:102230000E947F228CE594E00E947F2286E494E055
:1022400030C08CE394E00E947F22EA81FB81E75A50
:10225000FE4F8081882379F08BEA91E00E944E2224
:10226000EA81FB81E95AFE4F6081718180E090E054
:102270004AE00E948B220E9460228EE294E00E943B
:102280007F228AE194E00E947F220E94602284E003
:1022900094E00E947F228EEE93E00E947F2288EDE0
:1022A00093E0DF91CF910C947F22FC01EB5BFE4F1A
:1022B000108231961082319624E02083E62FF0E0E0
:1022C000EE0FFF1FE05FFE4F50814181FC01EC5596
:1022D000FF4F9C012C5B3E4F118210823596E21716
:1022E000F307D1F7252F342FDC01AE55BF4F8E5B9E
:1022F0009E4FF9017491319664913196449150E06A
:102300003196E4914115510589F07C9311966C93B7
:10231000119713965C934E9312971496EC9314971F
:102320002C5F3F4F1596A817B90719F708951F930B
:10233000CF93DF93EC0188E00E944322882309F4C5
:102340005FC08B819C81FC01E85BFE4F1082118293
:10235000128213821A81113081F198F01230E9F162
:10236000133009F080C0FC01EA5AFE4F908181E0F1
:102370008927808364E670E080E793E00E94841FF1
:1023800072C0FC01EF5AFE4F60810E9455118B8193
:102390009C81FC01EB5AFE4F108234961082779795
:1023A00022E030E03183208364E670E080E793E050
:1023B0000E94841F82E090E058C0FC01EF5AFE4F5B
:1023C00060810E9455118B819C81FC01EB5AFE4F6C
:1023D000108234961083779706C0FC01EB5AFE4FAB
:1023E00021E02083739722E030E03183208364E68C
:1023F00070E080E793E00E94841F83E090E035C0A6
:1024000080E80E944322882359F08A81882341F082
:1024100081508A8362E370E088EB91E00E94841F20
:1024200080E10E944322882359F08A81833040F45E
:102430008F5F8A8362E370E088EB91E00E94841FE3
:102440000B80DC81C02DC85BDE4F2DEC3CEC4CECEE
:102450005DE3688179818A819B810E94F42A688387
:1024600079838A839B8380E090E0DF91CF911F91F5
:10247000089560E00C9455118F929F92AF92BF9295
:10248000CF92DF92EF92FF920F931F93CF93DF9340
:102490008C0188E00E944322D8011296CD91DC91F4
:1024A0001397882309F44AC0FE01E85BFE4F1082AF
:1024B00011821282138280E090E0A0E8BFE334969C
:1024C00080839183A283B383FE01CE0180569F4F08
:1024D000158214823596E817F907D1F7CC5BDE4FE9
:1024E0001882D8011296ED91FC911397EF5AFE4F86
:1024F00080818F5F808312968D919C911397FC0150
:10250000EF5AFE4F6081603109F472C00E9455118C
:10251000D8011296ED91FC911397EE5AFE4F81E08F
:10252000808315961C921E92149764E670E080E7F3
:1025300093E00E94841F82E090E05CC0F801648117
:1025400075816F5F7F4F7583648380E090E00E94A8
:10255000122C4B015C0120E030E048E453E40E947F
:102560006A2B6B017C012DEC3CEC4CE45EE30E9499
:10257000032D181644F48DECC82E8CECD82E8CE468
:10258000E82E8EE3F82E8E01085B1E4FA701960100
:10259000D8016D917D918D919C910E94F42AF80152
:1025A00060837183828393832BED3FE049E45EE394
:1025B000C501B4010E94082D0E94752D0C5F1F4FAC
:1025C00020E030E040E05FE30E94082D2DEC3CEC81
:1025D0004CE45FE30E94F42AD8016D937D938D93C0
:1025E0009C931397CE5ADE4F188280E090E002C091
:1025F00085E090E0DF91CF911F910F91FF90EF90D8
:10260000DF90CF90BF90AF909F908F900895FC0186
:102610008485958597FD0BC09FB7F89482E08093E1
:10262000E9008091F2009FBF90E0019608959FB766
:10263000F89482E08093E9008091F2009FBF90E0DF
:1026400008954091C2015091C3012091C001309181
:10265000C10142175307B4F49091E8009570E1F37B
:102660009091E80092FD19C08093F1008091C20121
:102670009091C30101968F739927892B19F48EEFDE
:102680008093E8008091C2019091C30101969093DC
:10269000C3018093C20181E0089580E00895DF9234
:1026A000EF92FF920F931F93CF93DF93D82E8A015F
:1026B0007B01E40EF51EEB01CE15DF0571F0D7FEB0
:1026C00003C0FE01849101C088810E9421132196DC
:1026D0008111F2CF8FEF9FEF01C0C801DF91CF9141
:1026E0001F910F91FF90EF90DF900895615030F0AF
:1026F0002091F100FC0120830196F8CF289884E610
:102700008093C70108950F931F93CF93DF931F9278
:10271000CDB7DEB78C01FC018485958597FF0EC08F
:10272000CE0101960E94E61D019719F4898190E07F
:1027300002C08FEF9FEFF80195878487F8018485A9
:1027400095850F90DF91CF911F910F910895CF93B1
:10275000DF931F92CDB7DEB7FC018485958597FD89
:1027600005C02FEF3FEF358724870BC0CE010196C0
:102770000E94E61D019719F4898190E002C08FEF55
:102780009FEF0F90DF91CF9108950F931F93CF93F9
:10279000DF931F92CDB7DEB782E0898342E450E039
:1027A0006BEE76E080E80E944F130E94141EDC015D
:1027B00012960D911C9113970115110589F0D801FE
:1027C000ED91FC910280F381E02DBE016F5F7F4FA0
:1027D000C801099597FD04C0F80100851185ECCF6B
:1027E00089810F90DF91CF911F910F9108951F92D2
:1027F0000F920FB60F9211248F939F938091E10057
:102800009091E100937F9093E10083FF0FC01092BD
:10281000E90091E09093EB001092EC0092E390932A
:10282000ED001092C80198E09093F00082FF20C064
:1028300093E09093E9009091F200992319F09AE3C4
:102840009093E8009091C501992339F09091C501CA
:1028500091509093C501992389F19091C7019923D3
:1028600039F09091C70191509093C701992341F19C
:1028700084FF10C08091E2008E7E81608093E20030
:102880008091E1008F7E8093E1008091C6018E7E71
:10289000806111C080FF16C08091E2008E7E806151
:1028A0008093E2008091E1008E7E8093E100809130
:1028B000C6018E7E81608093C60104C05D9ACDCF33
:1028C000289AD6CF9F918F910F900FBE0F901F9097
:1028D00018951F920F920FB60F921124CF92DF928C
:1028E000EF92FF920F931F932F933F934F935F931A
:1028F0006F937F938F939F93AF93BF93EF93FF93C8
:10290000CF93DF93CDB7DEB76C97DEBFCDBF10920C
:10291000E9008091E80083FFFBC168E0CE014596A5
:102920000E94761382EF8093E8008D8987FF05C0AF
:102930009091E80090FFFCCF03C09EEF9093E800D9
:10294000982F907609F0C6C09E894F89588D2F899F
:10295000F88C91110CC0803829F48091BF018093CC
:10296000F10002C01092F1001092F10045C19130C7
:1029700051F4811141C14130510509F03DC18091AF
:10298000BF018D7F0BC0933061F4811135C141309F
:10299000510509F031C18091BF0182608093BF0170
:1029A0002BC1953049F48091E80080FFFCCF822F45
:1029B00080688093E30020C1963009F05EC00B8DE3
:1029C0001C8D22E01092E9001092C3011092C20106
:1029D000F21232C01092C1011092C0010E94C513C0
:1029E00099E0BE016F5F7F4FDB01E92F1D92EA95F1
:1029F000E9F79983FA8291E09E8390EA98879AEFAB
:102A000099872091C2013091C301275F3F4F3C83DA
:102A10002B838D831092E9001092C3011092C201A2
:102A20001093C1010093C00149E050E080E00E9492
:102A30004F130E94C513E0C01093C1010093C00161
:102A40000E94141EDC0112960D911C911397011522
:102A5000110509F4BBC0D801ED91FC910480F5810A
:102A6000E02DBE016B5E7F4FC8010995009709F00C
:102A7000C7C0F80100851185EACF973009F445C138
:102A8000983021F481E08093F100B6C0993009F0CC
:102A9000B3C0837009F039C1E1E3F1E081E031E0D6
:102AA00096E32081211109C08EE78093EA001092FD
:102AB000EA008F898093C8019FC08093E90030931A
:102AC000EB0021912093EC009093ED008F5F873015
:102AD00041F7EACF8B8D9C8D1092E9001092C301D3
:102AE0001092C2019093C1018093C001898D811120
:102AF00053C08E899D89913A49F4813209F005C10C
:102B000047E050E064E071E080E0BBC0913209F042
:102B1000FCC0833269F48F89988DA0E0B0E0809387
:102B2000000190930101A0930201B093030164C0DE
:102B3000803269F48091E80082FFFCCF67E084E096
:102B400091E00E9476138BEF8093E80055C08232AB
:102B500009F052C08F8980930B01EEEFFFE785915A
:102B600094918B3F9C4D19F0E0E0F8E002C0EEEF4D
:102B7000FAE08091040190910501A0910601B091C5
:102B80000701803B9440A105B10509F09EC08091EA
:102B90000B0180FF79C099C00E94141EFC010281C4
:102BA00013810115110509F4B0C0D801ED91FC9114
:102BB0000190F081E02DBE016B5E7F4FC801099549
:102BC00081111AC0F80100851185EBCFF1E0FF16E5
:102BD00009F44EC0F3E0FF1298C08F89882309F4EE
:102BE0004AC0823089F440E860E18FE497E00E94B7
:102BF000BA28882309F489C08EEF8093E80088C042
:102C000018161906CCF381C0813029F440E86BE036
:102C100083E497E0ECCF833009F077C00E94141E64
:102C2000DC011296ED90FC9013978E010F5F1F4F01
:102C30006801E114F10479F0D701ED91FC9106806F
:102C4000F781E02DB801C7010995080F111DF701A3
:102C5000E084F184EECFD8011C92F60101900020AF
:102C6000E9F73197BF016C197D0940E0C601BFCF7C
:102C700061E377E002C06DE277E0FB01449150E050
:102C800080E80E944F13B8CFEE3F2AE0F20751F0E0
:102C9000808191818737A7E79A0721F09093FF0AF7
:102CA0008093FE0A87E797E7918380838091600095
:102CB0008093C4019BE088E10FB6F894A8958093B7
:102CC00060000FBE9093600097CF8081918187371D
:102CD000974709F091CFA895809160008861809313
:102CE00060008091C40180936000EE3FBAE0FB0772
:102CF00039F08091FE0A9091FF0A918380837CCF06
:102D00001092FF0A1092FE0A77CF81E28093EB00C7
:102D10006C960FB6F894DEBF0FBECDBFDF91CF919A
:102D2000FF91EF91BF91AF919F918F917F916F91A3
:102D30005F914F913F912F911F910F91FF90EF90D5
:102D4000DF90CF900F900FBE0F901F9018958F922D
:102D50009F92AF92BF92CF92DF92EF92FF926B0160
:102D60007C010E94C5254B015C01C114D104E10422
:102D7000F104F1F00E94C525DC01CB018819990905
:102D8000AA09BB09883E9340A105B10570F321E073
:102D9000C21AD108E108F10888EE880E83E0981E77
:102DA000A11CB11CC114D104E104F10419F7DDCF59
:102DB000FF90EF90DF90CF90BF90AF909F908F905B
:102DC00008959C01240F311D1216130674F58038E6
:102DD00091055CF597FF02C080E090E02138310555
:102DE00014F020E830E0281BAB014770552731E094
:102DF00001C0330F4A95EAF777FF02C0695F7F4F42
:102E000043E0759567954A95E1F77695762F6627A5
:102E100077956795860F971FFC01ED51FE4F215066
:102E200020F08081832B8193FACF08952FB7F894F7
:102E300083E08093E9009091E800892F807295FFEC
:102E400004C09091F20080E4891B2FBF0895CF93B6
:102E5000DF931F92CDB7DEB76983DC01ED91FC9162
:102E60000280F381E02D41E050E0BE016F5F7F4FB3
:102E700009950F90DF91CF91089583E08093E90049
:102E80008091F200882319F08AE38093E800089586
:102E90000E94161790E008958F929F92AF92BF9272
:102EA000CF92DF92EF92FF920F931F93CF93DF9316
:102EB0006C017B018A0180910B01882309F45CC0BD
:102EC0008091C801882309F457C08091C60180FF12
:102ED00005C08091E00082608093E000E801B12CA1
:102EE0008AEFA82E93E0892E2AE3922E209711F4E0
:102EF000BB20D9F10E94161781110AC0AA94AA20FA
:102F0000D9F161E070E080E090E00E94A716EECF7A
:102F1000282F30E0C217D3070CF48C2F9FB7F894FA
:102F20008092E9002091E80025FF1DC0282F30E0A5
:102F3000C21BD30BF701815020F041914093F10067
:102F4000FACFE20EF31EBB2019F09092E8000AC0FF
:102F50008091E80085FD07C09092E800BB24B394FF
:102F6000209709F0B12C9FBFC1CF5D9884E6809374
:102F7000C5011016110644F081E090E0F60193833C
:102F8000828380E090E001C0C801DF91CF911F9162
:102F90000F91FF90EF90DF90CF90BF90AF909F90F8
:102FA0008F9008952F923F924F925F926F927F92EF
:102FB0008F929F92AF92BF92CF92DF92EF92FF9249
:102FC0000F931F93CF93DF93CDB7DEB7A9970FB6BB
:102FD000F894DEBF0FBECDBF7C01122FD32E4B83E2
:102FE0005C83FC01E45BFE4F80809180A280B38013
:102FF000262E312CB101032C000C880B990B0E945A
:10300000142C20E030E040EE50E40E94082DA50191
:1030100094010E94082D2B013C016D2D70E0F701F9
:10302000EA5BFE4F8081681B7109072E000C880B3C
:10303000990B0E94142CF701E85BFE4F208131812F
:10304000428153810E94F32A20E030E040E050E4C6
:103050000E94F32A9B01AC010E94F42A20E030E098
:1030600040E05EE30E94082D6B017C012BED3FE008
:1030700049E450E40E94082D6A877B878C879D87EE
:103080000E94652B6E8B7F8B888F998F6A857B85DD
:103090008C859D850E94752D6A8F7B8F8C8F9D8F6F
:1030A00088E0189FB0011124072E000C880B990BA3
:1030B0000E94142CA50194010E94082D6E837F8329
:1030C000888799879B01AC016E897F89888D998D4E
:1030D0000E94082D6A877B878C879D872E813F8180
:1030E000488559856A8D7B8D8C8D9D8D0E94082D1C
:1030F0006E837F8388879987005E8B819C81833074
:10310000910509F471C208F054C08130910509F4A9
:10311000E3C0029709F0CDC4B101660F771F660FB7
:10312000771F072E000C880B990B0E94142CA50109
:1031300094010E94082D0E94E32BF62E20E030E03F
:1031400040E052E46E817F81888599850E94F42A4F
:103150000E94DC2B4B015C01602F000F770B880B6A
:10316000990B0E94142C2A853B854C855D850E9415
:10317000F42A0E94DC2BDC01CB014F2DB401A9966F
:103180000FB6F894DEBF0FBECDBFDF91CF911F9178
:103190000F91FF90EF90DF90CF90BF90AF909F90F6
:1031A0008F907F906F905F904F903F902F900C94F6
:1031B000FD248430910509F42AC3059709F079C4E8
:1031C00020E030E0A901C501B4010E94082D6E87FE
:1031D0007F87888B998B20E030E040E051E4C50187
:1031E000B4010E94082D6B017C019B01AC016A8D2A
:1031F0007B8D8C8D9D8D0E94082D2E813F81488571
:1032000059850E94F42A20E030E040E052E40E9418
:10321000F42A0E94DC2B6A8B7B8B8C8B9D8B602F1E
:10322000000F770B880B990B0E94142C4B015C014B
:10323000A70196016E897F89888D998D0E94082D3E
:103240002A853B854C855D850E94F42AA501940161
:103250000E94F42A0E94DC2B6B017C012E853F85A5
:10326000488959896A8D7B8D8C8D9D8D0E94082D92
:103270002E813F81488559850E94F42A20E030E064
:1032800040E052E40E94F42A0E94DC2B2B013C0116
:103290002E853F85488959896E897F89888D998DCA
:1032A0000E94082D2A853B854C855D850E94F42A65
:1032B000A50194010E94F42A0E94DC2B4B015C01C1
:1032C0002A893B89A601B201C4010E947724920198
:1032D000A4016A897B89D2C320E030E040E05FE34B
:1032E000C701B6010E94F42A2BED3FE049E450E407
:1032F0000E94082D4B015C010E94652B6A8B7B8B21
:103300008C8B9D8BC501B4010E94752D6E877F87C4
:10331000888B998B20E030E040E85FE3C701B6017D
:103320000E94F42A2BED3FE049E450E40E94082D6E
:103330004B015C010E94652B6E8F7F8F88A399A340
:10334000C501B4010E94752D4B015C0120E030E005
:1033500040EC5FE3C701B6010E94F42A2BED3FE089
:1033600049E450E40E94082D6B017C010E94652B0A
:103370006AA37BA38CA39DA3C701B6010E94752DF0
:103380006B017C012E8D3F8D48A159A1C301B20173
:103390000E94082D23EF34E045EB5FE30E946A2B87
:1033A0002A853B854C855D850E94F42A6E8F7F8F30
:1033B00088A399A3A5019401C301B2010E94082D1D
:1033C00023EF34E045EB5FE30E946A2B2E813F81BF
:1033D000488559850E94F42A6EA37FA388A799A7E0
:1033E0002AA13BA14CA15DA1C301B2010E94082DFD
:1033F00023EF34E045EB5FE30E946A2B2A853B858F
:103400004C855D850E94F42A6AA37BA38CA39DA3AF
:10341000A7019601C301B2010E94082D23EF34E0F9
:1034200045EB5FE30E946A2B2E813F8148855985D9
:103430000E94F42A4B015C012E853F8548895989F9
:10344000C301B2010E94082D23EF34E045EB5FE396
:103450000E946A2B2E813F81488559850E94F42A5B
:1034600020E030E040E052E40E94F42A0E94DC2B8D
:103470006E877F87888B998B602F000F770B880B67
:10348000990B0E94142C6B017C012A893B894C8981
:103490005D89C301B2010E94082D23EF34E045EBA2
:1034A0005FE30E946A2B2A853B854C855D850E94DF
:1034B000F42AA70196010E94F42A0E94DC2B6A8B51
:1034C0007B8B8C8B9D8B2A8D3B8D4C8D5D8DC301B1
:1034D000B2010E94082D23EF34E045EB5FE30E9428
:1034E0006A2B2E813F81488559850E94F42A20E06D
:1034F00030E040E052E40E94F42A0E94DC2B6E830C
:103500007F83888799872E893F89488D598DC3018C
:10351000B2010E94082D23EF34E045EB5FE30E94E7
:103520006A2B2A853B854C855D850E94F42AA7017C
:1035300096010E94F42A0E94DC2B6A877B878C8785
:103540009D872E853F854A895B896E817F818A852B
:103550009B850E94772420E030E040E052E46EA199
:103560007FA188A599A50E94F42A0E94DC2B6E8B6E
:103570007F8B888F998FA70196016E8D7F8D88A193
:1035800099A10E94F42A0E94DC2B2B013C012E8978
:103590003F89AB016E857F858A899B890E9477244C
:1035A00020E030E040E052E4C501B4010E94F42A7A
:1035B0000E94DC2B4B015C01A70196016AA17BA153
:1035C0008CA19DA10E94F42A0E94DC2B6B017C013E
:1035D0009401AB016E897F89C2010E9477242E81FC
:1035E0003F814A855B8511C12BEA3AEA4AE25FE3F3
:1035F000C701B6010E94F42A2BED3FE049E450E4F4
:103600000E94082D4B015C010E94652B6A8B7B8B0D
:103610008C8B9D8BC501B4010E94752D6E877F87B1
:10362000888B998B2BEA3AEA4AEA5FE3C701B60135
:103630000E94F42A2BED3FE049E450E40E94082D5B
:103640006B017C010E94652B4B015C01C701B60137
:103650000E94752D6B017C01A5019401C301B2018B
:103660000E94082D23EF34E045EB5FE30E946A2BB4
:103670002A853B854C855D850E94F42A6E8F7F8F5D
:1036800088A399A3A7019601C301B2010E94082D46
:1036900023EF34E045EB5FE30E946A2B2E813F81EC
:1036A000488559850E94F42A4B015C012E853F858F
:1036B00048895989C301B2010E94082D23EF34E0E3
:1036C00045EB5FE30E946A2B2E813F814885598537
:1036D0000E94F42A20E030E040E052E40E94F42A04
:1036E0000E94DC2B6E877F87888B998B602F000F61
:1036F000770B880B990B0E94142C6B017C012A8993
:103700003B894C895D89C301B2010E94082D23EFDA
:1037100034E045EB5FE30E946A2B2A853B854C85AC
:103720005D850E94F42AA70196010E94F42A0E9456
:10373000DC2B6A8B7B8B8C8B9D8B2A8D3B8D4C8DF0
:103740005D8DC301B2010E94082D23EF34E045EBEB
:103750005FE30E946A2B2E813F81488559850E9434
:10376000F42A20E030E040E052E40E94F42A0E9473
:10377000DC2B6E837F83888799872E893F89488DCC
:10378000598DC301B2010E94082D23EF34E045EBAF
:103790005FE30E946A2B2A853B854C855D850E94EC
:1037A000F42AA70196010E94F42A0E94DC2B2B0127
:1037B0003C012E853F854A895B896E817F81C201EC
:1037C0000E94772420E030E040E052E4C501B401DB
:1037D0000E94F42A0E94DC2B4B015C01A701960198
:1037E0006E8D7F8D88A199A10E94F42A0E94DC2B06
:1037F0006B017C019401AB016E857F858A899B8971
:103800000E9477242E813F81A201B40137C12BEAA7
:103810003AEA4AEA5EE3C701B6010E94F42A2BEDB8
:103820003FE049E450E40E94082D4B015C010E94F6
:10383000652B6E877F87888B998BC501B4010E94A9
:10384000752D6A8B7B8B8C8B9D8B2BEA3AEA4AE237
:103850005FE3C701B6010E94F42A2BEA3AEA4AEA7A
:103860005EE30E94F42A2BED3FE049E450E40E941D
:10387000082D4B015C010E94652B6A8F7B8F8C8F1A
:103880009D8FC501B4010E94752D6E8B7F8B888F33
:10389000998F2BEA3AEA4AEA5FE3C701B6010E9430
:1038A000F42A2BEA3AEA4AEA5EE30E94F42A2BED74
:1038B0003FE049E450E40E94082D6B017C010E9426
:1038C000652B4B015C01C701B6010E94752D6B0190
:1038D0007C01A5019401C301B2010E94082D23EFD0
:1038E00034E045EB5FE30E946A2B2A853B854C85DB
:1038F0005D850E94F42A6E8F7F8F88A399A3A7010C
:103900009601C301B2010E94082D23EF34E045EB7C
:103910005FE30E946A2B2E813F81488559850E9472
:10392000F42A4B015C012E893F89488D598DC301D2
:10393000B2010E94082D23EF34E045EB5FE30E94C3
:103940006A2B2E813F81488559850E94F42A20E008
:1039500030E040E052E40E94F42A0E94DC2B6E8B9F
:103960007F8B888F998F602F000F770B880B990BB7
:103970000E94142C6B017C012A8D3B8D4C8D5D8D3A
:10398000C301B2010E94082D23EF34E045EB5FE351
:103990000E946A2B2A853B854C855D850E94F42A0E
:1039A000A70196010E94F42A0E94DC2B6A8F7B8F6C
:1039B0008C8F9D8F2A893B894C895D89C301B20117
:1039C0000E94082D23EF34E045EB5FE30E946A2B51
:1039D0002E813F81488559850E94F42A20E030E0FD
:1039E00040E052E40E94F42A0E94DC2B6E837F8325
:1039F000888799872E853F8548895989C301B201F7
:103A00000E94082D23EF34E045EB5FE30E946A2B10
:103A10002A853B854C855D850E94F42AA701960185
:103A20000E94F42A0E94DC2B2B013C012E893F8945
:103A30004A8D5B8D6E817F81C2010E94772420E0D8
:103A400030E040E052E4C501B4010E94F42A0E9433
:103A5000DC2B4B015C01A70196016E8D7F8D88A147
:103A600099A10E94F42A0E94DC2B6B017C01940135
:103A7000AB016E897F898A8D9B8DC2CEC601A996C6
:103A80000FB6F894DEBF0FBECDBFDF91CF911F916F
:103A90000F91FF90EF90DF90CF90BF90AF909F90ED
:103AA0008F907F906F905F904F903F902F900C94ED
:103AB0007724A9960FB6F894DEBF0FBECDBFDF9175
:103AC000CF911F910F91FF90EF90DF90CF90BF901B
:103AD000AF909F908F907F906F905F904F903F90AE
:103AE0002F900895DF92EF92FF920F931F93CF9341
:103AF000DF937C01D22E8B01040F111DEB0177FFA8
:103B000002C0C0E0D0E0C8010134110514F080E427
:103B100090E0C817D9073CF44D2DBE01C7010E94A3
:103B2000B11F2196F0CFDF91CF911F910F91FF90A0
:103B3000EF90DF900895EF92FF920F931F93CF9332
:103B4000DF93EC018B01E42EF22E6034710510F44A
:103B50000E94E116B8016F0D711D6150710960344A
:103B6000710520F44E2DCE010E94E11621E04F2D6B
:103B7000B801CE010E94721DCE018E0D911D21E073
:103B80004F2DB8010197DF91CF911F910F91FF90B9
:103B9000EF900C94721DCF93DF930E944E22EC01A4
:103BA0000E9460228C0F9D1FDF91CF910895E3EE5C
:103BB000F1E0A0E0B8E000800EBC8111012C11976B
:103BC000A0FDFDCF0192B9F70DB408952091C80171
:103BD000211103C08FEF9FEF08955FB7F89422E0A3
:103BE0002093E9002091F20030E01216130614F43D
:103BF00021E030E0422FFC0184E6415038F0289863
:103C00008093C7019091F1009193F7CF2115310571
:103C100021F08091F200882319F05FBFC901089557
:103C20008BE68093E800F9CF8091CD0181110DC022
:103C300082E08093C90184E08093CA011092CC0194
:103C40001092CB0181E08093CD0189EC91E0089541
:103C5000CF92DF92EF92FF920F931F93CF93DF9358
:103C60006C017A018B01C0E0D0E0CE15DF0581F058
:103C7000D8016D918D01D601ED91FC910190F081FB
:103C8000E02DC6010995892B11F02196EECF7E011A
:103C9000C701DF91CF911F910F91FF90EF90DF90BF
:103CA000CF9008958091E201E091E001F091E1016F
:103CB000882349F0CF0102969093E1018093E001BF
:103CC000859194910895CF0102969093E10180939C
:103CD000E0018081918108958091BC01089508954B
:103CE000089580E090E008950E94C62DCF92DF9263
:103CF000EF92FF920F931F93CF93DF930E94521E78
:103D0000811520E8920761F4809171008D7F809386
:103D1000710010929100469847981092D7018BC07D
:103D200021E02093D701813020E8920751F480915F
:103D3000DE019091DF019093E1018093E0010E9408
:103D4000521E97FD05C02091D601222309F43FC0E1
:103D50002091D50121113BC021E02093D801EC0135
:103D6000DF77209769F481E08093D90146983FE995
:103D7000C32E3FE0D32EE12CF12CCAEFD0E014C0CB
:103D80008E0120E030E060E472E48FE090E0A90171
:103D900098010E948A2A69017A0181E0C81AD10833
:103DA000E108F1081092D901E091F105F091F205D6
:103DB0000995811103C081E08093D9018091D801D8
:103DC0008823B9F18091D901811133C003C01092C9
:103DD000D801C5CF46992DC0479A0E94521E009720
:103DE00071F09C01DE010E94DE2ADC01CB0129E09A
:103DF000B595A795979587952A95D1F703C08FEF2D
:103E00009FEFDC01109290002AE020939100D09265
:103E10009900C09298008093DA019093DB01A093FF
:103E2000DC01B093DD0180917100826080937100AC
:103E300002C04798D2CFDF91CF911F910F91FF9091
:103E4000EF90DF90CF9008951F920F920FB60F92D0
:103E500011242F933F934F935F936F937F938F938F
:103E60009F93AF93BF93EF93FF938091DA0190916B
:103E7000DB01A091DC01B091DD01892B8A2B8B2B1A
:103E800081F18091D90181110BC098B180E489271B
:103E900088B98091D801882319F088B1805888B9F1
:103EA0008091DA019091DB01A091DC01B091DD01FC
:103EB000181619061A061B06B4F48091DA019091BF
:103EC000DB01A091DC01B091DD010197A109B109ED
:103ED0008093DA019093DB01A093DC01B093DD01C4
:103EE00002C00E94761EFF91EF91BF91AF919F910A
:103EF0008F917F916F915F914F913F912F910F9093
:103F00000FBE0F901F9018959C01E1E7F0E09081A3
:103F10009D7F90831092E201E3EEF5E0F093E101E2
:103F2000E093E001F093DF01E093DE013183208331
:103F30007383628380E090E8958384830C94761E7B
:103F40002D9A0895BC0180E090E00C94A7168FB1E3
:103F50008095807F669B88601C9B846008950C948C
:103F6000742A80389105B8F460347105A0F490E1AA
:103F700021E061FD24E060FD220F62FD2295687F53
:103F8000969FD0011124A80FAD51BE4F8C91822B6A
:103F900040FF82278C9308952F923F924F925F9219
:103FA0006F927F928F929F92AF92BF92CF92DF9249
:103FB000EF92FF920F931F93CF93DF93CDB7DEB7AE
:103FC00027970FB6F894DEBF0FBECDBF9F838E83B9
:103FD0006A30A1F4DC0155962C91559751968D913C
:103FE0009C915297B8E02B9F800D911D1124EE817A
:103FF000FF81928B818B108A1786ADC06D3009F4DA
:10400000AAC0AE81BF811F960D911C9150970038B8
:104010001105BCF0EE81FF812589422F50E0878594
:104020009089F6E02F9F800D911D1124AE81BF81F4
:1040300050969C938E931F9756962C91211175C084
:104040008AC0EE81FF8181889288F0E48F16910406
:104050000CF7AE81BF8155963C90C801B5E03B9E00
:10406000800D911D112418161906A4F6432C512C0D
:10407000C401E8E03E9E800D911D1124181619061A
:104080004CF6AE81BF815496BC91BC83EE81FF811A
:10409000F389FD8325E0629FB0011124CB01825A90
:1040A000904F3C011982F3012490F981F53009F415
:1040B000212C640128E02B8320FE03C03D813A833C
:1040C00002C08C818A839A81911104C0AC81BD8128
:1040D000AB17B9F078018E2D801B831590F4560133
:1040E0008A2D8C19831548F44A81B501C7010E94B5
:1040F000B11FEFEFAE1ABE0AF3CFFFEFEF1AFF0AC0
:10410000EACF26942B8121502B83C40CD51C21117E
:10411000D3CF39813F5F3983040D151DC30101964B
:104120003C01363009F0BFCF75CF6AEF64039001D0
:10413000659F300D112420583F4F281739075CF434
:10414000AE81BF81ED91FC9111970190F081E02D3E
:104150006AE0CD01099581E090E027960FB6F894CA
:10416000DEBF0FBECDBFDF91CF911F910F91FF90AA
:10417000EF90DF90CF90BF90AF909F908F907F9007
:104180006F905F904F903F902F900895DF92EF9245
:10419000FF920F931F93CF93DF9300D01F92CDB761
:1041A000DEB7182FD62E4A835B83EA80FB80E20EAF
:1041B000F11C8A819B818E159F0599F1FC01449128
:1041C000413F29F0423F31F0403F31F422C0F1EF4E
:1041D000F98321C082EF1EC09981903FE1F4403FF6
:1041E000D0F4812F90E0893791051CF0E8E0DE0ED5
:1041F00010E0F8E04F9FA00111244252584F6D2D5E
:1042000070E008E028E0812F90E00E94CC22185F47
:1042100002C080EF8983EA81FB813196FB83EA83C8
:10422000C8CF0F900F900F90DF91CF911F910F91FA
:10423000FF90EF90DF900895EF92FF920F931F93FE
:10424000CF93DF93EC010E94C523E12CF12C15E004
:104250008B819C811E9DF0011F9DF00D1124E80FA4
:10426000F91FEE55FF4F0FE32081318142815381C9
:1042700064810E94D2172FEFE21AF20A80E2E81658
:10428000F10431F7EB81FC81EA5AFE4F80811092F4
:104290000306109202061092050610920406882367
:1042A00009F49BC02EE040ED57E060E080E00E9402
:1042B000C62029E030E044E650E069E070E080E0AC
:1042C00090E00E94772480E390E09093030680932F
:1042D000020686E390E0909305068093040684EC42
:1042E00097E00E94642208E010E010930306009318
:1042F000020682E190E0909305068093040626E092
:104300004EEB57E062E188E00E94C620109303065E
:10431000009302068BE190E09093050680930406DB
:1043200028E046EB57E06BE188E00E94C62010933E
:1043300003060093020684E290E0909305068093C2
:10434000040625E041EB57E064E288E00E94C620C5
:1043500010930306009302060DE210E01093050689
:104360000093040624E04DEA57E06DE288E00E94E5
:10437000C62088E290E09093030680930206109393
:10438000050600930406EB81FC81EA5AFE4F80810A
:10439000882319F082EB91E002C085EB91E00E9446
:1043A000CB1D8A81109203061092020629E0829F9B
:1043B000C0011124429690930506809304068091D3
:1043C000FA0580FD59C080E697E0DF91CF911F91FB
:1043D0000F91FF90EF900C94642287E997E00E9480
:1043E000642280E390E0909303068093020686E3C4
:1043F00090E090930506809304068BE897E00E9476
:10440000642208E010E0109303060093020682E1A4
:1044100090E0909305068093040683E897E00E945D
:10442000642210930306009302068BE190E09093C0
:1044300005068093040687E797E00E947F22109389
:1044400003060093020684E290E0909305068093B1
:1044500004068DE697E00E947F22109303060093E6
:1044600002068DE290E0909305068093040682E6B2
:1044700097E00E94642287CFDF91CF911F910F9127
:10448000FF90EF9008952091FD05282329F4909145
:10449000FC05982381E009F480E00895009769F015
:1044A000FC0101900020E9F73197AF01481B590B3F
:1044B000BC0183EF95E00C94281E80E090E0089505
:1044C00088EB91E00C944E220F931F93CF93DF93D0
:1044D0008C01C0E0D0E0F801EC0FFD1F6491662371
:1044E00041F083EF95E00E94CC1F892B11F02196BB
:1044F000F2CFCE01DF91CF911F910F910895CF930D
:10450000DF930E946422EC010E9460228C0F9D1FA9
:10451000DF91CF9108958F929F92AF92BF920F93A8
:104520001F93CF93DF93CDB7DEB7A1970FB6F89463
:10453000DEBF0FBECDBF19A2423008F44AE08E01A3
:104540000F5D1F4F842E912CA12CB12CA50194013D
:104550000E94BC2AE62FB901CA0101501109EA30B4
:1045600014F4E05D01C0E95CD801EC93232B242B0B
:10457000252B61F7C8010E944E22A1960FB6F89430
:10458000DEBF0FBECDBFDF91CF911F910F91BF90C6
:10459000AF909F908F9008952F923F924F925F928D
:1045A0006F927F928F929F92AF92BF92CF92DF9243
:1045B000EF92FF920F931F93CF93DF93CDB7DEB7A8
:1045C0002A970FB6F894DEBF0FBECDBF5A01822ED8
:1045D000912C9401280F391F121613060CF0BCC041
:1045E000803891050CF0B8C09B01200F311D1216C8
:1045F00013060CF0B1C0603471050CF0ADC0AB0116
:1046000077FF04C044275527461B570B4770552793
:104610009B0177FF02C0295F3F4FE3E03595279567
:10462000EA95E1F777FF08C02150310968E070E0B2
:10463000FB01E41BF50BAF01202E26942694269453
:10464000312C077019F0FFEF2F1A3F0A220E331E8C
:1046500039017694762C662477946794680E791ED7
:10466000E12CF12C00E010E0B30160587F4F7A8715
:10467000698768E070E0FB01E41BF50BFA83E983CE
:104680002216330609F468C02830310509F464C0E5
:104690002F3FFFEF3F070CF454C0E985FA85E00F88
:1046A000F11FBF016D517E4F7C836B83D801A60D36
:1046B000B71DAD51BE4F6C0160E070E06815790523
:1046C0000CF03FC0E0E8CE16D10409F43AC0D7FCA4
:1046D0002CC02F3FFFEF3F0709F43AC0FB01EE0D5E
:1046E000FF1DEA0DFB1DE491042E01C0EE0F0A949C
:1046F000EAF7FC91EF2BEC9341155105B1F027300F
:10470000310599F0FB01EE0DFF1DEA0DFB1DE49153
:104710004E2E512C098002C0559447940A94E2F71A
:10472000EB81FC815080452840826F5F7F4FEB8199
:10473000FC813196FC83EB83FFEFCF1ADF0A1196E1
:10474000BDCF2F5F3F4F00581F4FE80CF91C98CF8B
:1047500041155105B9F6E9CF2A960FB6F894DEBF98
:104760000FBECDBFDF91CF911F910F91FF90EF90C2
:10477000DF90CF90BF90AF909F908F907F906F9081
:104780005F904F903F902F90089580E0E3EEF1E02E
:1047900081118FEF002481938193819381930394FE
:1047A000D1F7E3EFF5E0128A118A108A178608958F
:1047B000EF92FF920F931F93CF93DF93CDB7DEB7A6
:1047C0002A970FB6F894DEBF0FBECDBF6B837C83F4
:1047D000088719876B817C81E885F98563307105CD
:1047E00021F4E430F10589F506C06430710539F42F
:1047F000E330F10551F5411149C0EE20C9F16E17C2
:104800007F0709F043C062307105D1F038F46115BB
:10481000710561F16130710541F038C06530710595
:10482000B8F065307105E1F031C0411111C0E110FF
:104830002DC082132BC0952F9F259095917027C076
:10484000411106C0E11022C007C06E177F07F1F4C6
:104850004E111CC05F111AC091E0821317C017C01F
:104860004E1114C091E05F1111C011C091E00FC052
:104870008213C5CF252F30E02C5F3F4F27703327A1
:104880004F2D50E091E02417350709F090E0892F73
:104890002A960FB6F894DEBF0FBECDBFDF91CF9141
:1048A0001F910F91FF90EF9008959C01E1E7F0E0D8
:1048B00090819D7F90831092E201E3EEF5E0F0930A
:1048C000E101E093E001F093DF01E093DE01318349
:1048D000208389E190E09383828375836483978347
:1048E000868380E090E8918780870C94761E2F92D3
:1048F0003F924F925F926F927F928F929F92AF9270
:10490000BF92CF92DF92EF92FF920F931F93CF93BC
:10491000DF93EC018B017A016901C61AD70AD7FE31
:1049200003C0D194C194D10847018C1A9D0A97FE07
:1049300003C09194819491088C149D0454F49E2D8D
:104940008F2D7901292F382F9C2F8D2FE801092FCA
:10495000182FEC16FD0654F4902F812F8901292F72
:10496000382F9C2F8D2FE701E92EF82E17012C1AD6
:104970003D0A2901401A510A57FE03C0519441943F
:104980005108310137FE03C08FEF681A780A759419
:1049900067940217130714F08FEF01C081E0A82E6F
:1049A000880FBB08EC16FD06ACF041E08C149D04AA
:1049B0001CF4BE01C80102C0B801CE010E94B11FA3
:1049C0006418750877FE04C00A0D1B1D620C731C69
:1049D0002196E8CFDF91CF911F910F91FF90EF903B
:1049E000DF90CF90BF90AF909F908F907F906F900F
:1049F0005F904F903F902F9008952F923F924F924B
:104A00005F926F927F928F929F92AF92BF92CF925E
:104A1000DF92EF92FF920F931F93CF93DF9300D01B
:104A200000D0CDB7DEB77C018B01242F30E03C8372
:104A30002B8381E090E05C01A21AB30A1901319442
:104A400021943108220C331CB901600F711F41E021
:104A5000C7010E94B11FB8018B819C81681B790B33
:104A600041E0C7010E94B11F41E0B8018B819C81E8
:104A70008E0D9F1D0E94B11F41E0B801C7012B811F
:104A80003C81821B930B0E94B11FC12CD12C81E071
:104A900090E09A8389832B813C81C216D3060CF067
:104AA0005DC0B7FC09C0215031093C832B8332E043
:104AB000230E311CA20CB31C8FEFC81AD80A29810F
:104AC0003A812E5F3F4F3A832983A20EB31E3701EE
:104AD0006C0C7D1C41E08B809C80800E911EB4018B
:104AE000C3010E94B11F27014C185D0841E0B401C9
:104AF000C2010E94B11F41E048018B819C81881A4C
:104B0000990AB401C3010E94B11F41E0B401C2017E
:104B10000E94B11F4601800E911E41E0B4016B80DE
:104B20007C806E0C7F1CC3010E94B11F41E0B40168
:104B300027012B813C81421A530AC2010E94B11FF6
:104B400048018C189D0841E0B401C3010E94B11FC7
:104B500041E0B401C2010E94B11F9DCF0F900F90A0
:104B60000F900F90DF91CF911F910F91FF90EF90D9
:104B7000DF90CF90BF90AF909F908F907F906F907D
:104B80005F904F903F902F9008953FB7F894809199
:104B9000D0079091D107A091D207B091D30726B545
:104BA000A89B05C02F3F19F00196A11DB11D3FBF65
:104BB000BA2FA92F982F8827820F911DA11DB11DF3
:104BC000BC01CD0142E0660F771F881F991F4A95EF
:104BD000D1F708951F920F920FB60F9211242F93C1
:104BE0003F938F939F93AF93BF938091CB07909107
:104BF000CC07A091CD07B091CE073091CF0723E02D
:104C0000230F2D3720F40196A11DB11D05C026E804
:104C1000230F0296A11DB11D2093CF078093CB07D0
:104C20009093CC07A093CD07B093CE078091D00787
:104C30009091D107A091D207B091D3070196A11D01
:104C4000B11D8093D0079093D107A093D207B09362
:104C5000D307BF91AF919F918F913F912F910F906B
:104C60000FBE0F901F901895789484B5826084BD14
:104C700084B5816084BD85B5826085BD85B5816060
:104C800085BD80916E00816080936E0010928100DE
:104C90008091810082608093810080918100816099
:104CA000809381008091800081608093800080915A
:104CB0009100826080939100809191008160809347
:104CC0009100809190008160809390008091C1005C
:104CD00084608093C1008091C10082608093C10094
:104CE0008091C10081608093C1008091C300816088
:104CF0008093C3008091C00082608093C000809147
:104D0000C20081608093C20080917A0084608093A9
:104D10007A0080917A00826080937A0080917A0094
:104D2000816080937A0080917A00806880937A0015
:104D30001092C8011092BF011092C6018091D70055
:104D400081608093D70080EA8093D80089B5806124
:104D500089BD89B5826089BD09B400FEFDCF61E0DF
:104D600070E080E090E00E94A7168091D8008F7CD0
:104D700080618093D8008091E000807F8093E00084
:104D80008091E1008E7E8093E1008DE08093E200CF
:104D9000559A209A81EC80937C0085B1806F85B90B
:104DA00084B1877E84B984B1876E84B95E9A5F9836
:104DB0008AB1806D8AB9769A6E9881B3806F81BB13
:104DC000899880B38D7080BB80E58CBD81E08DBDFE
:104DD00085E090E00E94A21F5F9A85E090E00E942B
:104DE000A21F5E985C98EEEDF6E08BEE96E02491C3
:104DF0002EBD00000DB407FEFDCF31968E179F0724
:104E0000B1F75C9A81E880936400809165008160CD
:104E10008093650080E00E94D71D0E94A71F87FF36
:104E200024C05C9885EA8EBD00000DB407FEFDCF5E
:104E30005C9A2E982F982D988091640080628093C0
:104E4000640081E083BF889513BEFCCF2D980E943B
:104E5000A71F8478843871F00E94A71F8471843161
:104E600031F188EC90E00E94A21F0E94A71F82FDF2
:104E7000EDCF3AC00E94A01F88EC90E00E94A21FD4
:104E80002F9882E090E00E94742A8F3F29F06FEF04
:104E900082E090E00E947C2A84EF91E00E94A21FB1
:104EA0002F9A0E94A71F84788438D9F3D5CF0E9407
:104EB000A01F88EC90E00E94A21F2E9882E090E054
:104EC0000E94742A882329F060E082E090E00E942A
:104ED0007C2A84EF91E00E94A21F2E9A0E94A71FB5
:104EE00084718431D9F3BDCF0E94A01F82E090E08D
:104EF0000E94AF1F882331F03E9A3F9A81E0809351
:104F0000BC0104C01092BC013E983F9881E090E043
:104F10000E94AF1F182F147081FF39C011112E98F5
:104F2000C1EFDFEF0E94A71F86FF05C02E9A2F9AC0
:104F30000E94A01F2CC0112329F0C430D10511F408
:104F40002E9A2F9881E00E94D71D00E128E54EE2BD
:104F500056E0BE0184E190E00E94CC2280E00E94F5
:104F6000D71D8FE090E00E94A21F2196C931D10584
:104F7000C9F6112311F02F9A2D9880E991E00E9433
:104F8000A21F0E94A01F83EF95E00E94EF2882E3FA
:104F900090E00E94A21F0E94A71F8111F8CF81E21A
:104FA0008093FE0586E196E00E943912C6E1D6E0C4
:104FB000D0937A07C09379070E94162A20E130E047
:104FC00040E050E00E948A2A8091790790917A0708
:104FD0000E94551110927807D0937507C0937407FB
:104FE00084E680937207D0931306C0931206109242
:104FF00015061092140610920F0610920E06D0930A
:105000000D06C0930C0686E797E09093BE0180934F
:10501000BD0120E1422E512C612C712C30E0232E59
:1050200030E0332E40E7842E47E0942E50E1E52E09
:1050300056E0F52E8E016AE0C62E66E0D62E5C01A3
:105040008FB7F8944091CB075091CC076091CD0772
:105050007091CE078FBF8091FF05942F981B892FE9
:1050600090910006992329F0809301061092000682
:105070007AC09091FE05891748F48F5F891708F070
:1050800072C0A1E0A3BF889513BE6DC0B1E0B0931C
:1050900000064093FF058091FA059091FB0501966B
:1050A0009093FB058093FA058091FC058093FD05A4
:1050B0000E94A71F8093FC058091BD019091BE01C5
:1050C000DC01ED91FC910280F381E02D0995EC016A
:1050D0008091BD019091BE01DC01ED91FC910480B5
:1050E000F581E02D0995C230D10559F1D8F420970A
:1050F00021F12197C1F510937A07009379070E9457
:10510000162AA30192010E948A2A80917907909120
:105110007A070E94551110927807B092BE01A092B2
:10512000BD0121C0C430D105D1F0A0F02597D9F43C
:10513000D092BE01C092BD0116C080E00E94D71D72
:1051400012C080916707809373079092BE0180928E
:10515000BD0109C01093BE010093BD0104C0F092CF
:10516000BE01E092BD012114310409F469CF0E940F
:10517000000066CFDF92EF92FF920F931F93CF93C1
:10518000DF93D82EF92EE42E062F10E0C8010196E9
:10519000880F0E94211383E00E942113CD2DDF2D63
:1051A0000C0F1D1FC017D10789F0E7FE03C0FE01D9
:1051B000849101C088810E942113F82E80E00E9412
:1051C00021138F2121968111EDCF01C081E0DF9164
:1051D000CF911F910F91FF90EF90DF9008950F9363
:1051E0001F93CF93DF938C0181E090E00E94AF1F6B
:1051F00080FF32C08AE090E00E94AF1F9FEF980FBF
:105200009E3F50F522E330E0D80150963C932E9318
:105210001F9728E330E052963C932E935197CBE0B2
:10522000D0E0D801ED91FC910190F081E02D682F44
:10523000C8010995CE010E94AF1F2196C131D10549
:1052400081F780E00E94D71D88EE93E0DF91CF9137
:105250001F910F910C94A21FDF91CF911F910F917D
:10526000089504970C94EF28EBE7F7E0138212827D
:1052700088EE93E0A0E0B0E084839583A683B783B3
:105280008BE391E0918380838FEF9FEF95878487F5
:105290008CE69EE19093F2058093F10580E090E822
:1052A0009093F0058093EF0546983E9A47983F9A71
:1052B00089E891E090937707809376078FE791E0F4
:1052C000909371078093700781E691E090931706A1
:1052D0008093160682E090E09093590780935807D8
:1052E00010925A0710925B0710925C0781E080933E
:1052F0005D0710925E0710925F0710926007109290
:10530000610740E050E060E87FE34093620750931C
:105310006307609364077093650710926707809333
:1053200068071092690710926A0710926B07109233
:105330006C0710926E0710926D0710926F07E0E1F4
:10534000F6E025E731E03183208315821482EAE01C
:10535000F6E02BE631E03183208315821482E3EFFF
:10536000F5E0138212821186128690E193871086EF
:10537000178215862DE431E0318320832BE531E05F
:1053800035832483108A1786128A118A838B148AA4
:10539000858B168A08958F929F92AF92BF92CF927B
:1053A000DF92EF92FF92CF93DF93EC0168817981D6
:1053B0008A819B81611571058105910521F464E263
:1053C00079ED8BE597E02DE133EF41E050E00E946D
:1053D0008A2A49015A019B01AC01A7EAB1E40E9463
:1053E000A92A6B017C01ACEEB4EFA50194010E94E7
:1053F000B72ADC01CB018C0D9D1DAE1DBF1DB7FF73
:1054000003C00197A109B04888839983AA83BB830D
:10541000BC01CD019F77DF91CF91FF90EF90DF909E
:10542000CF90BF90AF909F908F9008958F929F9252
:10543000AF92BF92CF92DF92EF92FF9260910C01F8
:1054400070910D0180910E0190910F016115710510
:105450008105910521F464E279ED8BE597E02DE17A
:1054600033EF41E050E00E948A2A49015A019B0132
:10547000AC01A7EAB1E40E94A92A6B017C01ACEE61
:10548000B4EFA50194010E94B72ADC01CB018C0D79
:105490009D1DAE1DBF1DB7FF03C00197A109B048F8
:1054A00080930C0190930D01A0930E01B0930F0116
:1054B000BC01CD019F77FF90EF90DF90CF90BF9020
:1054C000AF909F908F90089560930C0170930D01A1
:1054D00080930E0190930F010895FB01DC0105906C
:1054E0000D920020E1F70895F999FECF92BD81BD9C
:1054F000F89A992780B50895262FF999FECF1FBAFB
:1055000092BD81BD20BD0FB6F894FA9AF99A0FBEEC
:1055100001960895052E97FB1EF400940E94A12A7F
:1055200057FD07D00E94BC2A07FC03D04EF40C9410
:10553000A12A50954095309521953F4F4F4F5F4F91
:10554000089590958095709561957F4F8F4F9F4FEF
:1055500008950E94DE2AA59F900DB49F900DA49FF0
:10556000800D911D11240895B7FF0C94A92A0E9463
:10557000A92A821B930B0895A1E21A2EAA1BBB1B1A
:10558000FD010DC0AA1FBB1FEE1FFF1FA217B3070F
:10559000E407F50720F0A21BB30BE40BF50B661F25
:1055A000771F881F991F1A9469F7609570958095E9
:1055B00090959B01AC01BD01CF010895A29FB00160
:1055C000B39FC001A39F700D811D1124911DB29F37
:1055D000700D811D1124911D0895EE0FFF1F059080
:1055E000F491E02D09945058BB27AA270E940B2B59
:1055F0000C94B52C0E947C2C38F00E94832C20F057
:1056000039F49F3F19F426F40C94792C0EF4E095AC
:10561000E7FB0C94732CE92F0E94DA2C58F3BA178D
:10562000620773078407950720F079F4A6F50C94B8
:10563000FC2C0EF4E0950B2EBA2FA02D0B01B90116
:1056400090010C01CA01A0011124FF27591B99F0F8
:10565000593F50F4503E68F11A16F040A22F232F04
:10566000342F4427585FF3CF469537952795A79554
:10567000F0405395C9F77EF41F16BA0B620B730BFB
:10568000840BBAF09150A1F0FF0FBB1F661F771F6C
:10569000881FC2F70EC0BA0F621F731F841F48F421
:1056A000879577956795B795F7959E3F08F0B0CFAA
:1056B0009395880F08F09927EE0F97958795089591
:1056C0000E944F2C08F481E008950E948C2CE395F1
:1056D0000C94C62C0E947E2B0C94B52C0E94832C1B
:1056E00058F00E947C2C40F029F45F3F29F00C9484
:1056F000732C51110C94FD2C0C94792C0E94DA2CF3
:1057000068F39923B1F3552391F3951B550BBB27F0
:10571000AA2762177307840738F09F5F5F4F220F35
:10572000331F441FAA1FA9F335D00E2E3AF0E0E82C
:1057300032D091505040E695001CCAF72BD0FE2F76
:1057400029D0660F771F881FBB1F2617370748070A
:10575000AB07B0E809F0BB0B802DBF01FF279358C2
:105760005F4F3AF09E3F510578F00C94732C0C94E7
:10577000FD2C5F3FE4F3983ED4F3869577956795CB
:10578000B795F7959F5FC9F7880F911D96958795F7
:1057900097F90895E1E0660F771F881FBB1F621716
:1057A00073078407BA0720F0621B730B840BBA0BD4
:1057B000EE1F88F7E09508950E94E32B6894B111DD
:1057C0000C94FD2C08950E94E22C88F09F5798F0CD
:1057D000B92F9927B751B0F0E1F0660F771F881FF6
:1057E000991F1AF0BA95C9F714C0B13091F00E9410
:1057F000FC2CB1E008950C94FC2C672F782F88279F
:10580000B85F39F0B93FCCF3869577956795B39536
:10581000D9F73EF490958095709561957F4F8F4FA5
:105820009F4F0895E89409C097FB3EF490958095AA
:10583000709561957F4F8F4F9F4F9923A9F0F92F56
:1058400096E9BB279395F695879577956795B795D4
:10585000F111F8CFFAF4BB0F11F460FF1BC06F5FBA
:105860007F4F8F4F9F4F16C0882311F096E911C0CC
:10587000772321F09EE8872F762F05C0662371F0ED
:1058800096E8862F70E060E02AF09A95660F771F01
:10589000881FDAF7880F9695879597F90895990FDD
:1058A0000008550FAA0BE0E8FEEF16161706E807EA
:1058B000F907C0F012161306E407F50798F0621B0B
:1058C000730B840B950B39F40A2661F0232B242BE0
:1058D000252B21F408950A2609F4A140A6958FEFFF
:1058E000811D811D089597F99F6780E870E060E051
:1058F00008959FEF80EC089500240A941616170669
:1059000018060906089500240A94121613061406B0
:10591000050608950C94792C0E94E22CD8F3E894A3
:10592000E0E0BB279F57F0F02AED3FE049EC06C0CE
:10593000EE0FBB0F661F771F881F28F0B23A620771
:105940007307840728F0B25A620B730B840BE3953C
:105950009A9572F7803830F49A95BB0F661F771FBF
:10596000881FD2F790480C947F2D092E0394000CC9
:1059700011F4882352F0BB0F40F4BF2B11F460FFE9
:1059800004C06F5F7F4F8F4F9F4F0895EF93E0FFED
:1059900007C0A2EA2AED3FE049EC5FEB0E940B2B27
:1059A0000E94B52C0F90039401FC9058ECEAF0E0B3
:1059B0000C948B2D57FD9058440F551F59F05F3FA5
:1059C00071F04795880F97FB991F61F09F3F79F021
:1059D00087950895121613061406551FF2CF4695A3
:1059E000F1DF08C0161617061806991FF1CF869525
:1059F0007105610508940895E894BB276627772709
:105A0000CB0197F908950E944F2C08F48FEF089569
:105A10000E941B2D0C94B52C0E947C2C38F00E9407
:105A2000832C20F0952311F00C94732C0C94792C7A
:105A300011240C94FD2C0E94DA2C70F3959FC1F375
:105A4000950F50E0551F629FF001729FBB27F00D2C
:105A5000B11D639FAA27F00DB11DAA1F649F662781
:105A6000B00DA11D661F829F2227B00DA11D621FD0
:105A7000739FB00DA11D621F839FA00D611D221F8A
:105A8000749F3327A00D611D231F849F600D211D6E
:105A9000822F762F6A2F11249F5750409AF0F1F0F1
:105AA00088234AF0EE0FFF1FBB1F661F771F881F5A
:105AB00091505040A9F79E3F510580F00C94732CF3
:105AC0000C94FD2C5F3FE4F3983ED4F386957795D4
:105AD0006795B795F795E7959F5FC1F7FE2B880F00
